{
  "contractName": "TokenLockPlan",
  "abi": [
    {
      "inputs": [
        {
          "internalType": "contract IERC20",
          "name": "_erc20_contract_address",
          "type": "address"
        }
      ],
      "stateMutability": "nonpayable",
      "type": "constructor"
    },
    {
      "anonymous": false,
      "inputs": [
        {
          "indexed": false,
          "internalType": "address",
          "name": "recipient",
          "type": "address"
        },
        {
          "indexed": false,
          "internalType": "uint256",
          "name": "amount",
          "type": "uint256"
        }
      ],
      "name": "AllocationPerformed",
      "type": "event"
    },
    {
      "anonymous": false,
      "inputs": [
        {
          "indexed": false,
          "internalType": "address",
          "name": "from",
          "type": "address"
        },
        {
          "indexed": false,
          "internalType": "uint256",
          "name": "amount",
          "type": "uint256"
        }
      ],
      "name": "TokensDeposited",
      "type": "event"
    },
    {
      "anonymous": false,
      "inputs": [
        {
          "indexed": false,
          "internalType": "address",
          "name": "recipient",
          "type": "address"
        },
        {
          "indexed": false,
          "internalType": "uint256",
          "name": "amount",
          "type": "uint256"
        }
      ],
      "name": "TokensUnlocked",
      "type": "event"
    },
    {
      "inputs": [
        {
          "internalType": "address",
          "name": "",
          "type": "address"
        }
      ],
      "name": "alreadyWithdrawn",
      "outputs": [
        {
          "internalType": "uint256",
          "name": "",
          "type": "uint256"
        }
      ],
      "stateMutability": "view",
      "type": "function"
    },
    {
      "inputs": [
        {
          "internalType": "address",
          "name": "",
          "type": "address"
        }
      ],
      "name": "balances",
      "outputs": [
        {
          "internalType": "uint256",
          "name": "",
          "type": "uint256"
        }
      ],
      "stateMutability": "view",
      "type": "function"
    },
    {
      "inputs": [],
      "name": "contractEthBalance",
      "outputs": [
        {
          "internalType": "uint256",
          "name": "",
          "type": "uint256"
        }
      ],
      "stateMutability": "view",
      "type": "function"
    },
    {
      "inputs": [],
      "name": "erc20Contract",
      "outputs": [
        {
          "internalType": "contract IERC20",
          "name": "",
          "type": "address"
        }
      ],
      "stateMutability": "view",
      "type": "function"
    },
    {
      "inputs": [],
      "name": "initialTimestamp",
      "outputs": [
        {
          "internalType": "uint256",
          "name": "",
          "type": "uint256"
        }
      ],
      "stateMutability": "view",
      "type": "function"
    },
    {
      "inputs": [],
      "name": "isLocked",
      "outputs": [
        {
          "internalType": "bool",
          "name": "",
          "type": "bool"
        }
      ],
      "stateMutability": "view",
      "type": "function"
    },
    {
      "inputs": [
        {
          "internalType": "address",
          "name": "",
          "type": "address"
        }
      ],
      "name": "lockPlanLengths",
      "outputs": [
        {
          "internalType": "uint256",
          "name": "",
          "type": "uint256"
        }
      ],
      "stateMutability": "view",
      "type": "function"
    },
    {
      "inputs": [
        {
          "internalType": "address",
          "name": "",
          "type": "address"
        },
        {
          "internalType": "uint256",
          "name": "",
          "type": "uint256"
        }
      ],
      "name": "lockPlans",
      "outputs": [
        {
          "internalType": "uint256",
          "name": "amount",
          "type": "uint256"
        },
        {
          "internalType": "uint256",
          "name": "unlockTimestamp",
          "type": "uint256"
        }
      ],
      "stateMutability": "view",
      "type": "function"
    },
    {
      "inputs": [],
      "name": "owner",
      "outputs": [
        {
          "internalType": "address payable",
          "name": "",
          "type": "address"
        }
      ],
      "stateMutability": "view",
      "type": "function"
    },
    {
      "inputs": [],
      "name": "timestampSet",
      "outputs": [
        {
          "internalType": "bool",
          "name": "",
          "type": "bool"
        }
      ],
      "stateMutability": "view",
      "type": "function"
    },
    {
      "inputs": [],
      "name": "totalBalance",
      "outputs": [
        {
          "internalType": "uint256",
          "name": "",
          "type": "uint256"
        }
      ],
      "stateMutability": "view",
      "type": "function"
    },
    {
      "stateMutability": "payable",
      "type": "receive"
    },
    {
      "inputs": [],
      "name": "finalizeAllIncomingDeposits",
      "outputs": [],
      "stateMutability": "nonpayable",
      "type": "function"
    },
    {
      "inputs": [
        {
          "internalType": "address",
          "name": "recipient",
          "type": "address"
        },
        {
          "internalType": "uint256[]",
          "name": "unlockTimestamps",
          "type": "uint256[]"
        },
        {
          "internalType": "uint256[]",
          "name": "amounts",
          "type": "uint256[]"
        }
      ],
      "name": "setLockPlan",
      "outputs": [],
      "stateMutability": "nonpayable",
      "type": "function"
    },
    {
      "inputs": [
        {
          "internalType": "address[]",
          "name": "recipients",
          "type": "address[]"
        },
        {
          "internalType": "uint256[][]",
          "name": "unlockTimestampss",
          "type": "uint256[][]"
        },
        {
          "internalType": "uint256[][]",
          "name": "amountss",
          "type": "uint256[][]"
        }
      ],
      "name": "bulkSetLockPlan",
      "outputs": [],
      "stateMutability": "nonpayable",
      "type": "function"
    },
    {
      "inputs": [
        {
          "internalType": "address",
          "name": "recipient",
          "type": "address"
        }
      ],
      "name": "checkUnlockedTokenAmount",
      "outputs": [
        {
          "internalType": "uint256",
          "name": "",
          "type": "uint256"
        }
      ],
      "stateMutability": "nonpayable",
      "type": "function"
    },
    {
      "inputs": [
        {
          "internalType": "address",
          "name": "recipient",
          "type": "address"
        },
        {
          "internalType": "uint256",
          "name": "withdrawAmount",
          "type": "uint256"
        }
      ],
      "name": "withdrawUnlockedToken",
      "outputs": [],
      "stateMutability": "nonpayable",
      "type": "function"
    },
    {
      "inputs": [],
      "name": "getDepositedTokenBalance",
      "outputs": [
        {
          "internalType": "uint256",
          "name": "",
          "type": "uint256"
        }
      ],
      "stateMutability": "nonpayable",
      "type": "function"
    },
    {
      "inputs": [
        {
          "internalType": "uint256",
          "name": "amount",
          "type": "uint256"
        }
      ],
      "name": "transferAccidentallyLockedTokens",
      "outputs": [],
      "stateMutability": "nonpayable",
      "type": "function"
    },
    {
      "inputs": [
        {
          "internalType": "contract IERC20",
          "name": "token",
          "type": "address"
        },
        {
          "internalType": "uint256",
          "name": "amount",
          "type": "uint256"
        }
      ],
      "name": "transferAccidentallyLockedOtherTokens",
      "outputs": [],
      "stateMutability": "nonpayable",
      "type": "function"
    },
    {
      "inputs": [
        {
          "internalType": "uint256",
          "name": "amount",
          "type": "uint256"
        }
      ],
      "name": "transferAccidentallyLockedEth",
      "outputs": [],
      "stateMutability": "nonpayable",
      "type": "function"
    }
  ],
  "bytecode": "0x60806040523480156200001157600080fd5b50604051620037e8380380620037e88339818101604052810190620000379190620001ff565b60008060006101000a81548160ff02191690831515021790555033600060026101000a81548173ffffffffffffffffffffffffffffffffffffffff021916908373ffffffffffffffffffffffffffffffffffffffff1602179055506000600260006101000a81548160ff021916908315150217905550600073ffffffffffffffffffffffffffffffffffffffff168173ffffffffffffffffffffffffffffffffffffffff16036200011f576040517f08c379a00000000000000000000000000000000000000000000000000000000081526004016200011690620002b8565b60405180910390fd5b80600960006101000a81548173ffffffffffffffffffffffffffffffffffffffff021916908373ffffffffffffffffffffffffffffffffffffffff16021790555060008060016101000a81548160ff02191690831515021790555050620002da565b600080fd5b600073ffffffffffffffffffffffffffffffffffffffff82169050919050565b6000620001b38262000186565b9050919050565b6000620001c782620001a6565b9050919050565b620001d981620001ba565b8114620001e557600080fd5b50565b600081519050620001f981620001ce565b92915050565b60006020828403121562000218576200021762000181565b5b60006200022884828501620001e8565b91505092915050565b600082825260208201905092915050565b7f5f65726332305f636f6e74726163745f6164647265737320616464726573732060008201527f63616e206e6f74206265207a65726f0000000000000000000000000000000000602082015250565b6000620002a0602f8362000231565b9150620002ad8262000242565b604082019050919050565b60006020820190508181036000830152620002d38162000291565b9050919050565b6134fe80620002ea6000396000f3fe6080604052600436106101235760003560e01c80638da5cb5b116100a0578063a8f6c91311610064578063a8f6c9131461049b578063ad7a672f146104c6578063d0b1a9c3146104f1578063d6d141711461051a578063e352e38714610545576101d2565b80638da5cb5b146103b457806393b823e8146103df5780639aa2e39e146104085780639b69279a14610445578063a4e2d63414610470576101d2565b80634df90256116100e75780634df90256146102bb5780635d58ce36146102f85780637562e3aa146103235780637818021f14610360578063823ab20614610389576101d2565b806302cc6e3f146101d7578063054a563d146101ee5780631feb11891461022c57806327e235e3146102555780632f3dc91514610292576101d2565b366101d2576000151560008054906101000a900460ff1615151461017c576040517f08c379a000000000000000000000000000000000000000000000000000000000815260040161017390612188565b60405180910390fd5b6101913460085461056e90919063ffffffff16565b6008819055507f59062170a285eb80e8c6b8ced60428442a51910635005233fc4ce084a475845e33346040516101c8929190612202565b60405180910390a1005b600080fd5b3480156101e357600080fd5b506101ec610584565b005b3480156101fa57600080fd5b506102156004803603810190610210919061228d565b6107c1565b6040516102239291906122cd565b60405180910390f35b34801561023857600080fd5b50610253600480360381019061024e9190612334565b610802565b005b34801561026157600080fd5b5061027c60048036038101906102779190612374565b610a67565b60405161028991906123a1565b60405180910390f35b34801561029e57600080fd5b506102b960048036038101906102b49190612477565b610a7f565b005b3480156102c757600080fd5b506102e260048036038101906102dd9190612374565b610c60565b6040516102ef91906123a1565b60405180910390f35b34801561030457600080fd5b5061030d610ec3565b60405161031a91906123a1565b60405180910390f35b34801561032f57600080fd5b5061034a60048036038101906103459190612374565b610ec9565b60405161035791906123a1565b60405180910390f35b34801561036c57600080fd5b506103876004803603810190610382919061252b565b610ee1565b005b34801561039557600080fd5b5061039e611017565b6040516103ab91906123a1565b60405180910390f35b3480156103c057600080fd5b506103c961113e565b6040516103d69190612579565b60405180910390f35b3480156103eb57600080fd5b506104066004803603810190610401919061252b565b611164565b005b34801561041457600080fd5b5061042f600480360381019061042a9190612374565b611345565b60405161043c91906123a1565b60405180910390f35b34801561045157600080fd5b5061045a61135d565b60405161046791906125af565b60405180910390f35b34801561047c57600080fd5b50610485611370565b60405161049291906125af565b60405180910390f35b3480156104a757600080fd5b506104b0611381565b6040516104bd9190612629565b60405180910390f35b3480156104d257600080fd5b506104db6113a7565b6040516104e891906123a1565b60405180910390f35b3480156104fd57600080fd5b506105186004803603810190610513919061269a565b6113ad565b005b34801561052657600080fd5b5061052f61180c565b60405161053c91906123a1565b60405180910390f35b34801561055157600080fd5b5061056c6004803603810190610567919061228d565b611812565b005b6000818361057c919061275e565b905092915050565b600060029054906101000a900473ffffffffffffffffffffffffffffffffffffffff1673ffffffffffffffffffffffffffffffffffffffff163373ffffffffffffffffffffffffffffffffffffffff1614610614576040517f08c379a000000000000000000000000000000000000000000000000000000000815260040161060b90612804565b60405180910390fd5b60011515600260009054906101000a900460ff1615151461066a576040517f08c379a000000000000000000000000000000000000000000000000000000000815260040161066190612896565b60405180910390fd5b6000151560008054906101000a900460ff161515146106be576040517f08c379a00000000000000000000000000000000000000000000000000000000081526004016106b590612188565b60405180910390fd5b600754600960009054906101000a900473ffffffffffffffffffffffffffffffffffffffff1673ffffffffffffffffffffffffffffffffffffffff166370a08231306040518263ffffffff1660e01b815260040161071c91906128b6565b602060405180830381865afa158015610739573d6000803e3d6000fd5b505050506040513d601f19601f8201168201806040525081019061075d91906128e6565b101561079e576040517f08c379a000000000000000000000000000000000000000000000000000000000815260040161079590612985565b60405180910390fd5b4260018190555060016000806101000a81548160ff021916908315150217905550565b600360205281600052604060002081815481106107dd57600080fd5b9060005260206000209060020201600091509150508060000154908060010154905082565b600060029054906101000a900473ffffffffffffffffffffffffffffffffffffffff1673ffffffffffffffffffffffffffffffffffffffff163373ffffffffffffffffffffffffffffffffffffffff1614610892576040517f08c379a000000000000000000000000000000000000000000000000000000000815260040161088990612804565b60405180910390fd5b600060019054906101000a900460ff16156108e2576040517f08c379a00000000000000000000000000000000000000000000000000000000081526004016108d9906129f1565b60405180910390fd5b6001600060016101000a81548160ff021916908315150217905550600073ffffffffffffffffffffffffffffffffffffffff168273ffffffffffffffffffffffffffffffffffffffff160361096c576040517f08c379a000000000000000000000000000000000000000000000000000000000815260040161096390612a5d565b60405180910390fd5b600960009054906101000a900473ffffffffffffffffffffffffffffffffffffffff1673ffffffffffffffffffffffffffffffffffffffff168273ffffffffffffffffffffffffffffffffffffffff16036109fc576040517f08c379a00000000000000000000000000000000000000000000000000000000081526004016109f390612b15565b60405180910390fd5b610a49600060029054906101000a900473ffffffffffffffffffffffffffffffffffffffff16828473ffffffffffffffffffffffffffffffffffffffff16611da19092919063ffffffff16565b60008060016101000a81548160ff0219169083151502179055505050565b60056020528060005260406000206000915090505481565b600060029054906101000a900473ffffffffffffffffffffffffffffffffffffffff1673ffffffffffffffffffffffffffffffffffffffff163373ffffffffffffffffffffffffffffffffffffffff1614610b0f576040517f08c379a0000000000000000000000000000000000000000000000000000000008152600401610b0690612804565b60405180910390fd5b6000151560008054906101000a900460ff16151514610b63576040517f08c379a0000000000000000000000000000000000000000000000000000000008152600401610b5a90612188565b60405180910390fd5b8383905086869050148015610b7d57508181905084849050145b610bbc576040517f08c379a0000000000000000000000000000000000000000000000000000000008152600401610bb390612bcd565b60405180910390fd5b60005b86869050811015610c5757610c44878783818110610be057610bdf612bed565b5b9050602002016020810190610bf59190612374565b868684818110610c0857610c07612bed565b5b9050602002810190610c1a9190612c2b565b868686818110610c2d57610c2c612bed565b5b9050602002810190610c3f9190612c2b565b6113ad565b8080610c4f90612c8e565b915050610bbf565b50505050505050565b60008060019054906101000a900460ff1615610cb1576040517f08c379a0000000000000000000000000000000000000000000000000000000008152600401610ca8906129f1565b60405180910390fd5b6001600060016101000a81548160ff021916908315150217905550600060019054906101000a900460ff1615610d1c576040517f08c379a0000000000000000000000000000000000000000000000000000000008152600401610d13906129f1565b60405180910390fd5b6001600060016101000a81548160ff0219169083151502179055506000805b600360008573ffffffffffffffffffffffffffffffffffffffff1673ffffffffffffffffffffffffffffffffffffffff16815260200190815260200160002080549050811015610e85576000600360008673ffffffffffffffffffffffffffffffffffffffff1673ffffffffffffffffffffffffffffffffffffffff1681526020019081526020016000208281548110610dd857610dd7612bed565b5b90600052602060002090600202016000015490506000600360008773ffffffffffffffffffffffffffffffffffffffff1673ffffffffffffffffffffffffffffffffffffffff1681526020019081526020016000208381548110610e3f57610e3e612bed565b5b9060005260206000209060020201600101549050804210610e7057610e6d828561056e90919063ffffffff16565b93505b50508080610e7d90612c8e565b915050610d3b565b508091505060008060016101000a81548160ff02191690831515021790555060008060016101000a81548160ff021916908315150217905550919050565b60085481565b60046020528060005260406000206000915090505481565b600060029054906101000a900473ffffffffffffffffffffffffffffffffffffffff1673ffffffffffffffffffffffffffffffffffffffff163373ffffffffffffffffffffffffffffffffffffffff1614610f71576040517f08c379a0000000000000000000000000000000000000000000000000000000008152600401610f6890612804565b60405180910390fd5b600060019054906101000a900460ff1615610fc1576040517f08c379a0000000000000000000000000000000000000000000000000000000008152600401610fb8906129f1565b60405180910390fd5b6001600060016101000a81548160ff0219169083151502179055506040517f08c379a000000000000000000000000000000000000000000000000000000000815260040161100e90612d22565b60405180910390fd5b60008060019054906101000a900460ff1615611068576040517f08c379a000000000000000000000000000000000000000000000000000000000815260040161105f906129f1565b60405180910390fd5b6001600060016101000a81548160ff021916908315150217905550600960009054906101000a900473ffffffffffffffffffffffffffffffffffffffff1673ffffffffffffffffffffffffffffffffffffffff166370a08231306040518263ffffffff1660e01b81526004016110de91906128b6565b602060405180830381865afa1580156110fb573d6000803e3d6000fd5b505050506040513d601f19601f8201168201806040525081019061111f91906128e6565b905060008060016101000a81548160ff02191690831515021790555090565b600060029054906101000a900473ffffffffffffffffffffffffffffffffffffffff1681565b600060029054906101000a900473ffffffffffffffffffffffffffffffffffffffff1673ffffffffffffffffffffffffffffffffffffffff163373ffffffffffffffffffffffffffffffffffffffff16146111f4576040517f08c379a00000000000000000000000000000000000000000000000000000000081526004016111eb90612804565b60405180910390fd5b600060019054906101000a900460ff1615611244576040517f08c379a000000000000000000000000000000000000000000000000000000000815260040161123b906129f1565b60405180910390fd5b6001600060016101000a81548160ff0219169083151502179055506008548111156112a4576040517f08c379a000000000000000000000000000000000000000000000000000000000815260040161129b90612d8e565b60405180910390fd5b6112b981600854611e2790919063ffffffff16565b600881905550600060029054906101000a900473ffffffffffffffffffffffffffffffffffffffff1673ffffffffffffffffffffffffffffffffffffffff166108fc829081150290604051600060405180830381858888f19350505050158015611327573d6000803e3d6000fd5b5060008060016101000a81548160ff02191690831515021790555050565b60066020528060005260406000206000915090505481565b600260009054906101000a900460ff1681565b60008054906101000a900460ff1681565b600960009054906101000a900473ffffffffffffffffffffffffffffffffffffffff1681565b60075481565b600060029054906101000a900473ffffffffffffffffffffffffffffffffffffffff1673ffffffffffffffffffffffffffffffffffffffff163373ffffffffffffffffffffffffffffffffffffffff161461143d576040517f08c379a000000000000000000000000000000000000000000000000000000000815260040161143490612804565b60405180910390fd5b6000151560008054906101000a900460ff16151514611491576040517f08c379a000000000000000000000000000000000000000000000000000000000815260040161148890612188565b60405180910390fd5b600073ffffffffffffffffffffffffffffffffffffffff168573ffffffffffffffffffffffffffffffffffffffff1603611500576040517f08c379a00000000000000000000000000000000000000000000000000000000081526004016114f790612e20565b60405180910390fd5b818190508484905014611548576040517f08c379a000000000000000000000000000000000000000000000000000000000815260040161153f90612eb2565b60405180910390fd5b600360008673ffffffffffffffffffffffffffffffffffffffff1673ffffffffffffffffffffffffffffffffffffffff168152602001908152602001600020600061159391906120ba565b60005b848490508110156118045760008585838181106115b6576115b5612bed565b5b90506020020135905060008484848181106115d4576115d3612bed565b5b905060200201359050600360008973ffffffffffffffffffffffffffffffffffffffff1673ffffffffffffffffffffffffffffffffffffffff1681526020019081526020016000206040518060400160405280838152602001848152509080600181540180825580915050600190039060005260206000209060020201600090919091909150600082015181600001556020820151816001015550506116c36001600460008b73ffffffffffffffffffffffffffffffffffffffff1673ffffffffffffffffffffffffffffffffffffffff1681526020019081526020016000205461056e90919063ffffffff16565b600460008a73ffffffffffffffffffffffffffffffffffffffff1673ffffffffffffffffffffffffffffffffffffffff1681526020019081526020016000208190555061175881600560008b73ffffffffffffffffffffffffffffffffffffffff1673ffffffffffffffffffffffffffffffffffffffff1681526020019081526020016000205461056e90919063ffffffff16565b600560008a73ffffffffffffffffffffffffffffffffffffffff1673ffffffffffffffffffffffffffffffffffffffff168152602001908152602001600020819055506117b08160075461056e90919063ffffffff16565b6007819055507fcad22dd3bcdad18c651a372fe3e7e893af3d354482d9ac6c310c8342eb7af57488826040516117e7929190612202565b60405180910390a1505080806117fc90612c8e565b915050611596565b505050505050565b60015481565b60011515600260009054906101000a900460ff16151514611868576040517f08c379a000000000000000000000000000000000000000000000000000000000815260040161185f90612896565b60405180910390fd5b600060019054906101000a900460ff16156118b8576040517f08c379a00000000000000000000000000000000000000000000000000000000081526004016118af906129f1565b60405180910390fd5b6001600060016101000a81548160ff021916908315150217905550600073ffffffffffffffffffffffffffffffffffffffff168273ffffffffffffffffffffffffffffffffffffffff1603611942576040517f08c379a000000000000000000000000000000000000000000000000000000000815260040161193990612f44565b60405180910390fd5b80600960009054906101000a900473ffffffffffffffffffffffffffffffffffffffff1673ffffffffffffffffffffffffffffffffffffffff166370a08231306040518263ffffffff1660e01b815260040161199e91906128b6565b602060405180830381865afa1580156119bb573d6000803e3d6000fd5b505050506040513d601f19601f820116820180604052508101906119df91906128e6565b1015611a20576040517f08c379a0000000000000000000000000000000000000000000000000000000008152600401611a1790612fd6565b60405180910390fd5b80600560008473ffffffffffffffffffffffffffffffffffffffff1673ffffffffffffffffffffffffffffffffffffffff168152602001908152602001600020541015611aa2576040517f08c379a0000000000000000000000000000000000000000000000000000000008152600401611a9990613068565b60405180910390fd5b8173ffffffffffffffffffffffffffffffffffffffff163373ffffffffffffffffffffffffffffffffffffffff1614611b10576040517f08c379a0000000000000000000000000000000000000000000000000000000008152600401611b07906130fa565b60405180910390fd5b6000611b1b83610c60565b90506000611b71600660008673ffffffffffffffffffffffffffffffffffffffff1673ffffffffffffffffffffffffffffffffffffffff1681526020019081526020016000205483611e2790919063ffffffff16565b905082811015611bb6576040517f08c379a0000000000000000000000000000000000000000000000000000000008152600401611bad9061318c565b60405180910390fd5b611c0883600660008773ffffffffffffffffffffffffffffffffffffffff1673ffffffffffffffffffffffffffffffffffffffff1681526020019081526020016000205461056e90919063ffffffff16565b600660008673ffffffffffffffffffffffffffffffffffffffff1673ffffffffffffffffffffffffffffffffffffffff16815260200190815260200160002081905550611c9d83600560008773ffffffffffffffffffffffffffffffffffffffff1673ffffffffffffffffffffffffffffffffffffffff16815260200190815260200160002054611e2790919063ffffffff16565b600560008673ffffffffffffffffffffffffffffffffffffffff1673ffffffffffffffffffffffffffffffffffffffff16815260200190815260200160002081905550611cf583600754611e2790919063ffffffff16565b600781905550611d488484600960009054906101000a900473ffffffffffffffffffffffffffffffffffffffff1673ffffffffffffffffffffffffffffffffffffffff16611da19092919063ffffffff16565b7fe7b379c6c1fa169e9079c25e9143b127637eef8ec8c9d5c06ddb4ab3e11958888484604051611d79929190612202565b60405180910390a1505060008060016101000a81548160ff0219169083151502179055505050565b611e228363a9059cbb60e01b8484604051602401611dc0929190612202565b604051602081830303815290604052907bffffffffffffffffffffffffffffffffffffffffffffffffffffffff19166020820180517bffffffffffffffffffffffffffffffffffffffffffffffffffffffff8381831617835250505050611e3d565b505050565b60008183611e3591906131ac565b905092915050565b6000611e9f826040518060400160405280602081526020017f5361666545524332303a206c6f772d6c6576656c2063616c6c206661696c65648152508573ffffffffffffffffffffffffffffffffffffffff16611f049092919063ffffffff16565b9050600081511115611eff5780806020019051810190611ebf919061320c565b611efe576040517f08c379a0000000000000000000000000000000000000000000000000000000008152600401611ef5906132ab565b60405180910390fd5b5b505050565b6060611f138484600085611f1c565b90509392505050565b606082471015611f61576040517f08c379a0000000000000000000000000000000000000000000000000000000008152600401611f589061333d565b60405180910390fd5b611f6a85612030565b611fa9576040517f08c379a0000000000000000000000000000000000000000000000000000000008152600401611fa0906133a9565b60405180910390fd5b6000808673ffffffffffffffffffffffffffffffffffffffff168587604051611fd2919061343a565b60006040518083038185875af1925050503d806000811461200f576040519150601f19603f3d011682016040523d82523d6000602084013e612014565b606091505b5091509150612024828286612053565b92505050949350505050565b6000808273ffffffffffffffffffffffffffffffffffffffff163b119050919050565b60608315612063578290506120b3565b6000835111156120765782518084602001fd5b816040517f08c379a00000000000000000000000000000000000000000000000000000000081526004016120aa91906134a6565b60405180910390fd5b9392505050565b50805460008255600202906000526020600020908101906120db91906120de565b50565b5b80821115612101576000808201600090556001820160009055506002016120df565b5090565b600082825260208201905092915050565b7f496e636f6d696e67206465706f736974732068617665206265656e2066696e6160008201527f6c697365642e0000000000000000000000000000000000000000000000000000602082015250565b6000612172602683612105565b915061217d82612116565b604082019050919050565b600060208201905081810360008301526121a181612165565b9050919050565b600073ffffffffffffffffffffffffffffffffffffffff82169050919050565b60006121d3826121a8565b9050919050565b6121e3816121c8565b82525050565b6000819050919050565b6121fc816121e9565b82525050565b600060408201905061221760008301856121da565b61222460208301846121f3565b9392505050565b600080fd5b600080fd5b61223e816121c8565b811461224957600080fd5b50565b60008135905061225b81612235565b92915050565b61226a816121e9565b811461227557600080fd5b50565b60008135905061228781612261565b92915050565b600080604083850312156122a4576122a361222b565b5b60006122b28582860161224c565b92505060206122c385828601612278565b9150509250929050565b60006040820190506122e260008301856121f3565b6122ef60208301846121f3565b9392505050565b6000612301826121c8565b9050919050565b612311816122f6565b811461231c57600080fd5b50565b60008135905061232e81612308565b92915050565b6000806040838503121561234b5761234a61222b565b5b60006123598582860161231f565b925050602061236a85828601612278565b9150509250929050565b60006020828403121561238a5761238961222b565b5b60006123988482850161224c565b91505092915050565b60006020820190506123b660008301846121f3565b92915050565b600080fd5b600080fd5b600080fd5b60008083601f8401126123e1576123e06123bc565b5b8235905067ffffffffffffffff8111156123fe576123fd6123c1565b5b60208301915083602082028301111561241a576124196123c6565b5b9250929050565b60008083601f840112612437576124366123bc565b5b8235905067ffffffffffffffff811115612454576124536123c1565b5b6020830191508360208202830111156124705761246f6123c6565b5b9250929050565b600080600080600080606087890312156124945761249361222b565b5b600087013567ffffffffffffffff8111156124b2576124b1612230565b5b6124be89828a016123cb565b9650965050602087013567ffffffffffffffff8111156124e1576124e0612230565b5b6124ed89828a01612421565b9450945050604087013567ffffffffffffffff8111156125105761250f612230565b5b61251c89828a01612421565b92509250509295509295509295565b6000602082840312156125415761254061222b565b5b600061254f84828501612278565b91505092915050565b6000612563826121a8565b9050919050565b61257381612558565b82525050565b600060208201905061258e600083018461256a565b92915050565b60008115159050919050565b6125a981612594565b82525050565b60006020820190506125c460008301846125a0565b92915050565b6000819050919050565b60006125ef6125ea6125e5846121a8565b6125ca565b6121a8565b9050919050565b6000612601826125d4565b9050919050565b6000612613826125f6565b9050919050565b61262381612608565b82525050565b600060208201905061263e600083018461261a565b92915050565b60008083601f84011261265a576126596123bc565b5b8235905067ffffffffffffffff811115612677576126766123c1565b5b602083019150836020820283011115612693576126926123c6565b5b9250929050565b6000806000806000606086880312156126b6576126b561222b565b5b60006126c48882890161224c565b955050602086013567ffffffffffffffff8111156126e5576126e4612230565b5b6126f188828901612644565b9450945050604086013567ffffffffffffffff81111561271457612713612230565b5b61272088828901612644565b92509250509295509295909350565b7f4e487b7100000000000000000000000000000000000000000000000000000000600052601160045260246000fd5b6000612769826121e9565b9150612774836121e9565b925082820190508082111561278c5761278b61272f565b5b92915050565b7f4d6573736167652073656e646572206d7573742062652074686520636f6e747260008201527f6163742773206f776e65722e0000000000000000000000000000000000000000602082015250565b60006127ee602c83612105565b91506127f982612792565b604082019050919050565b6000602082019050818103600083015261281d816127e1565b9050919050565b7f506c6561736520736574207468652074696d65207374616d702066697273742c60008201527f207468656e2074727920616761696e2e00000000000000000000000000000000602082015250565b6000612880603083612105565b915061288b82612824565b604082019050919050565b600060208201905081810360008301526128af81612873565b9050919050565b60006020820190506128cb60008301846121da565b92915050565b6000815190506128e081612261565b92915050565b6000602082840312156128fc576128fb61222b565b5b600061290a848285016128d1565b91505092915050565b7f4465706f697374656420636f6e74726163742062616c616e6365206973206c6560008201527f7373207468616e20746f74616c206c6f636b696e6720616d6f756e742e000000602082015250565b600061296f603d83612105565b915061297a82612913565b604082019050919050565b6000602082019050818103600083015261299e81612962565b9050919050565b7f4e6f2072652d656e7472616e6379000000000000000000000000000000000000600082015250565b60006129db600e83612105565b91506129e6826129a5565b602082019050919050565b60006020820190508181036000830152612a0a816129ce565b9050919050565b7f546f6b656e20616464726573732063616e206e6f74206265207a65726f2e0000600082015250565b6000612a47601e83612105565b9150612a5282612a11565b602082019050919050565b60006020820190508181036000830152612a7681612a3a565b9050919050565b7f4f6e6c7920746f6b656e207768696368206973206e6f74206c6f636b6564206260008201527f79207468697320636f6e74726163742063616e206265207472616e736665726560208201527f642e000000000000000000000000000000000000000000000000000000000000604082015250565b6000612aff604283612105565b9150612b0a82612a7d565b606082019050919050565b60006020820190508181036000830152612b2e81612af2565b9050919050565b7f54686520726563697069656e74732c20756e6c6f636b54696d657374616d707360008201527f7320616e6420616d6f756e747373206d757374206265207468652073616d652060208201527f6c656e6774682e00000000000000000000000000000000000000000000000000604082015250565b6000612bb7604783612105565b9150612bc282612b35565b606082019050919050565b60006020820190508181036000830152612be681612baa565b9050919050565b7f4e487b7100000000000000000000000000000000000000000000000000000000600052603260045260246000fd5b600080fd5b600080fd5b600080fd5b60008083356001602003843603038112612c4857612c47612c1c565b5b80840192508235915067ffffffffffffffff821115612c6a57612c69612c21565b5b602083019250602082023603831315612c8657612c85612c26565b5b509250929050565b6000612c99826121e9565b91507fffffffffffffffffffffffffffffffffffffffffffffffffffffffffffffffff8203612ccb57612cca61272f565b5b600182019050919050565b7f544f444f00000000000000000000000000000000000000000000000000000000600082015250565b6000612d0c600483612105565b9150612d1782612cd6565b602082019050919050565b60006020820190508181036000830152612d3b81612cff565b9050919050565b7f496e73756666696369656e742066756e64730000000000000000000000000000600082015250565b6000612d78601283612105565b9150612d8382612d42565b602082019050919050565b60006020820190508181036000830152612da781612d6b565b9050919050565b7f45524332303a207472616e7366657220746f20746865207a65726f206164647260008201527f6573732e00000000000000000000000000000000000000000000000000000000602082015250565b6000612e0a602483612105565b9150612e1582612dae565b604082019050919050565b60006020820190508181036000830152612e3981612dfd565b9050919050565b7f54686520756e6c6f636b54696d657374616d707320616e6420616d6f756e747360008201527f206d757374206265207468652073616d65206c656e6774682e00000000000000602082015250565b6000612e9c603983612105565b9150612ea782612e40565b604082019050919050565b60006020820190508181036000830152612ecb81612e8f565b9050919050565b7f45524332303a207472616e7366657220746f20746865207a65726f206164647260008201527f6573730000000000000000000000000000000000000000000000000000000000602082015250565b6000612f2e602383612105565b9150612f3982612ed2565b604082019050919050565b60006020820190508181036000830152612f5d81612f21565b9050919050565b7f496e73756666696369656e7420746f6b656e2062616c616e63652028636f6e7460008201527f72616374292c20747279206c657373657220616d6f756e740000000000000000602082015250565b6000612fc0603883612105565b9150612fcb82612f64565b604082019050919050565b60006020820190508181036000830152612fef81612fb3565b9050919050565b7f496e73756666696369656e7420746f6b656e2062616c616e636520287573657260008201527f292c20747279206c657373657220616d6f756e74000000000000000000000000602082015250565b6000613052603483612105565b915061305d82612ff6565b604082019050919050565b6000602082019050818103600083015261308181613045565b9050919050565b7f4f6e6c792074686520746f6b656e20726563697069656e742063616e2070657260008201527f666f726d2074686520756e6c6f636b0000000000000000000000000000000000602082015250565b60006130e4602f83612105565b91506130ef82613088565b604082019050919050565b60006020820190508181036000830152613113816130d7565b9050919050565b7f536f6d6520746f6b656e7320617265207374696c6c206c6f636b65642c20747260008201527f79206c657373657220616d6f756e742e00000000000000000000000000000000602082015250565b6000613176603083612105565b91506131818261311a565b604082019050919050565b600060208201905081810360008301526131a581613169565b9050919050565b60006131b7826121e9565b91506131c2836121e9565b92508282039050818111156131da576131d961272f565b5b92915050565b6131e981612594565b81146131f457600080fd5b50565b600081519050613206816131e0565b92915050565b6000602082840312156132225761322161222b565b5b6000613230848285016131f7565b91505092915050565b7f5361666545524332303a204552433230206f7065726174696f6e20646964206e60008201527f6f74207375636365656400000000000000000000000000000000000000000000602082015250565b6000613295602a83612105565b91506132a082613239565b604082019050919050565b600060208201905081810360008301526132c481613288565b9050919050565b7f416464726573733a20696e73756666696369656e742062616c616e636520666f60008201527f722063616c6c0000000000000000000000000000000000000000000000000000602082015250565b6000613327602683612105565b9150613332826132cb565b604082019050919050565b600060208201905081810360008301526133568161331a565b9050919050565b7f416464726573733a2063616c6c20746f206e6f6e2d636f6e7472616374000000600082015250565b6000613393601d83612105565b915061339e8261335d565b602082019050919050565b600060208201905081810360008301526133c281613386565b9050919050565b600081519050919050565b600081905092915050565b60005b838110156133fd5780820151818401526020810190506133e2565b60008484015250505050565b6000613414826133c9565b61341e81856133d4565b935061342e8185602086016133df565b80840191505092915050565b60006134468284613409565b915081905092915050565b600081519050919050565b6000601f19601f8301169050919050565b600061347882613451565b6134828185612105565b93506134928185602086016133df565b61349b8161345c565b840191505092915050565b600060208201905081810360008301526134c0818461346d565b90509291505056fea264697066735822122092163a77f724abc549de6f9745b09912ab87f14670afff43901e6719c2b35bdd64736f6c63430008100033",
  "immutableReferences": {},
  "source": "// SPDX-License-Identifier: MIT\npragma solidity 0.8.16;\n\nimport \"@openzeppelin/contracts/token/ERC20/utils/SafeERC20.sol\";\n\nimport \"openzeppelin-solidity/contracts/utils/math/SafeMath.sol\";\n\ncontract TokenLockPlan {\n\n    struct LockPlan {\n        uint256 amount;\n        uint256 unlockTimestamp;\n    }\n\n    // Flags\n    bool public isLocked;\n    bool internal reentrancyFlag;   // boolean to prevent reentrancy\n\n    // Library usage\n    using SafeERC20 for IERC20;\n    using SafeMath for uint256;\n\n    // Contract owner\n    address payable public owner;\n\n    // Timestamp related variables\n    uint256 public initialTimestamp;    // The time locking started\n    bool public timestampSet;\n\n    // Token amount variables\n    mapping(address => LockPlan[]) public lockPlans;\n    mapping(address => uint256) public lockPlanLengths;\n    mapping(address => uint256) public balances;\n    mapping(address => uint256) public alreadyWithdrawn;\n    uint256 public totalBalance;\n    uint256 public contractEthBalance;\n\n    // ERC20 contract address\n    IERC20 public erc20Contract;\n\n    // Events\n    event TokensDeposited(address from, uint256 amount);\n    event AllocationPerformed(address recipient, uint256 amount);\n    event TokensUnlocked(address recipient, uint256 amount);\n\n    /// @dev Deploys contract and links the ERC20 token which we are timelocking, also sets owner as msg.sender and sets timestampSet bool to false.\n    /// @param _erc20_contract_address.\n    constructor(IERC20 _erc20_contract_address) {\n        // Allow this contract's owner to make deposits by setting allIncomingDepositsFinalised to false\n        isLocked = false;\n\n        // Set contract owner\n        owner = payable(msg.sender);\n\n        // Timestamp values not set yet\n        timestampSet = false;\n\n        // Set the erc20 contract address which this timelock is deliberately paired to\n        require(address(_erc20_contract_address) != address(0), \"_erc20_contract_address address can not be zero\");\n        erc20Contract = _erc20_contract_address;\n\n        // Initialize the reentrancy variable to not locked\n        reentrancyFlag = false;\n    }\n\n    // Modifier\n    /**\n     * @dev Prevents reentrancy\n     */\n    modifier noReentrant() {\n        require(!reentrancyFlag, \"No re-entrancy\");\n        reentrancyFlag = true;\n        _;\n        reentrancyFlag = false;\n    }\n\n    // Modifier\n    /**\n     * @dev Throws if allIncomingDepositsFinalised is true.\n     */\n    modifier notLocked() {\n        require(isLocked == false, \"Incoming deposits have been finalised.\");\n        _;\n    }\n\n    // Modifier\n    /**\n     * @dev Throws if called by any account other than the owner.\n     */\n    modifier onlyOwner() {\n        require(msg.sender == owner, \"Message sender must be the contract's owner.\");\n        _;\n    }\n\n    // Modifier\n    /**\n     * @dev Throws if timestamp already set.\n     */\n    modifier timestampNotSet() {\n        require(timestampSet == false, \"The time stamp has already been set.\");\n        _;\n    }\n\n    // Modifier\n    /**\n     * @dev Throws if timestamp not set.\n     */\n    modifier timestampIsSet() {\n        require(timestampSet == true, \"Please set the time stamp first, then try again.\");\n        _;\n    }\n\n    receive() payable external notLocked {\n        contractEthBalance = contractEthBalance.add(msg.value);\n        emit TokensDeposited(msg.sender, msg.value);\n    }\n\n    /// @dev Takes away any ability (for the contract owner) to assign any tokens to any recipients. \n    /// This function is only to be called by the contract owner. \n    /// Calling this function can not be undone. \n    /// Calling this function must only be performed when all of the addresses and amounts are allocated (to the recipients). \n    /// This function finalizes the contract owners involvement and at this point the contract's timelock functionality is non-custodial\n    function finalizeAllIncomingDeposits() public onlyOwner timestampIsSet notLocked {\n        // Check contract balance is equal to all locked token amount.\n        require(erc20Contract.balanceOf(address(this)) >= totalBalance, \"Depoisted contract balance is less than total locking amount.\");\n\n        // Record locking start time\n        initialTimestamp = block.timestamp;\n\n        // Make owner cannot access anymore\n        isLocked = true;\n    }\n\n    /// @dev \n    /// @param recipient, address of recipient.\n    /// @param unlockTimestamps, timestamp when token is unlocked\n    /// @param amounts, amount of locking token\n    function setLockPlan(address recipient, uint256[] calldata unlockTimestamps, uint256[] calldata amounts) public onlyOwner notLocked {\n        require(recipient != address(0), \"ERC20: transfer to the zero address.\");\n        require(unlockTimestamps.length == amounts.length, \"The unlockTimestamps and amounts must be the same length.\");\n        \n        delete lockPlans[recipient];\n\n        for(uint256 i = 0; i < unlockTimestamps.length; i++)\n        {\n            uint256 unlockTimestamp = unlockTimestamps[i];\n            uint256 amount = amounts[i];\n\n            lockPlans[recipient].push(\n                LockPlan(\n                    amount,\n                    unlockTimestamp\n                )\n            );\n            lockPlanLengths[recipient] = lockPlanLengths[recipient].add(1);\n            balances[recipient] = balances[recipient].add(amount);\n            totalBalance = totalBalance.add(amount);\n\n            emit AllocationPerformed(recipient, amount);\n        }\n    }\n\n    /// @dev \n    /// @param recipients, an array of addresses of the many recipient.\n    /// @param unlockTimestampss, timestamp when token is unlocked\n    /// @param amountss to allocate to each of the many recipient.\n    function bulkSetLockPlan(address[] calldata recipients, uint256[][] calldata unlockTimestampss, uint256[][] calldata amountss) external onlyOwner notLocked {\n        require(recipients.length == unlockTimestampss.length && unlockTimestampss.length == amountss.length, \"The recipients, unlockTimestampss and amountss must be the same length.\");\n        \n        for(uint256 i = 0; i < recipients.length; i++)\n        {\n            setLockPlan(recipients[i], unlockTimestampss[i], amountss[i]);\n        }\n    }\n\n    function checkUnlockedTokenAmount(address recipient) public noReentrant noReentrant returns (uint256) {\n        // Calculate unlocked token amount\n        uint256 unlockedAmount = 0;\n        for(uint256 i = 0; i < lockPlans[recipient].length; i++)\n        {\n            uint256 amount = lockPlans[recipient][i].amount;\n            uint256 unlockTimestamp = lockPlans[recipient][i].unlockTimestamp;\n\n            if(block.timestamp >= unlockTimestamp)\n            {\n                unlockedAmount = unlockedAmount.add(amount);\n            }\n        }\n\n        return unlockedAmount;\n    }\n\n    /// @dev Allows recipient to unlock tokens after 24 month period has elapsed\n    /// @param recipient - the recipient's account address.\n    /// @param withdrawAmount - the amount to unlock (in wei)\n    function withdrawUnlockedToken(address recipient, uint256 withdrawAmount) public timestampIsSet noReentrant {\n        // Validate\n        require(recipient != address(0), \"ERC20: transfer to the zero address\");\n        require(erc20Contract.balanceOf(address(this)) >= withdrawAmount, \"Insufficient token balance (contract), try lesser amount\");\n        require(balances[recipient] >= withdrawAmount, \"Insufficient token balance (user), try lesser amount\");\n        require(msg.sender == recipient, \"Only the token recipient can perform the unlock\");\n\n        // Calculate unlocked token amount\n        uint256 unlockedAmount = checkUnlockedTokenAmount(recipient);\n        \n        // Validate\n        uint256 withdrawableAmount = unlockedAmount.sub(alreadyWithdrawn[recipient]);\n        require(withdrawableAmount >= withdrawAmount, \"Some tokens are still locked, try lesser amount.\");\n\n        // Transfer\n        alreadyWithdrawn[recipient] = alreadyWithdrawn[recipient].add(withdrawAmount);\n        balances[recipient] = balances[recipient].sub(withdrawAmount);\n        totalBalance = totalBalance.sub(withdrawAmount);\n        erc20Contract.safeTransfer(recipient, withdrawAmount);\n        emit TokensUnlocked(recipient, withdrawAmount);\n    }\n\n    function getDepositedTokenBalance() public noReentrant returns (uint256) {\n        return erc20Contract.balanceOf(address(this));\n    }\n\n    /// @dev Transfer accidentally locked tokens.\n    /// @param amount of ERC20 tokens to remove.\n    function transferAccidentallyLockedTokens(uint256 amount) public onlyOwner noReentrant {\n        revert(\"TODO\");\n    }\n\n    /// @dev Transfer accidentally locked ERC20 tokens.\n    /// @param token - ERC20 token address.\n    /// @param amount of ERC20 tokens to remove.\n    function transferAccidentallyLockedOtherTokens(IERC20 token, uint256 amount) public onlyOwner noReentrant {\n        // Validate\n        require(address(token) != address(0), \"Token address can not be zero.\");\n        require(token != erc20Contract, \"Only token which is not locked by this contract can be transfered.\");\n        \n        token.safeTransfer(owner, amount);\n    }\n\n    /// @dev Function to withdraw Eth in case Eth is accidently sent to this contract.\n    /// @param amount of network tokens to withdraw (in wei).\n    function transferAccidentallyLockedEth(uint256 amount) public onlyOwner noReentrant{\n        require(amount <= contractEthBalance, \"Insufficient funds\");\n        contractEthBalance = contractEthBalance.sub(amount);\n\n        // Transfer the specified amount of Eth to the owner of this contract\n        owner.transfer(amount);\n    }\n}",
  "sourcePath": "/Users/kyungyoonkim/blockchain/MultiTimeLock/contracts/TokenLockPlan.sol",
  "compiler": {
    "name": "solc",
    "version": "0.8.16+commit.07a7930e.Emscripten.clang"
  },
  "schemaVersion": "3.4.8",
  "updatedAt": "2022-08-18T06:25:44.889Z",
  "devdoc": {
    "kind": "dev",
    "methods": {
      "bulkSetLockPlan(address[],uint256[][],uint256[][])": {
        "params": {
          "amountss": "to allocate to each of the many recipient.",
          "recipients": ", an array of addresses of the many recipient.",
          "unlockTimestampss": ", timestamp when token is unlocked"
        }
      },
      "constructor": {
        "details": "Deploys contract and links the ERC20 token which we are timelocking, also sets owner as msg.sender and sets timestampSet bool to false.",
        "params": {
          "_erc20_contract_address": "."
        }
      },
      "finalizeAllIncomingDeposits()": {
        "details": "Takes away any ability (for the contract owner) to assign any tokens to any recipients.  This function is only to be called by the contract owner.  Calling this function can not be undone.  Calling this function must only be performed when all of the addresses and amounts are allocated (to the recipients).  This function finalizes the contract owners involvement and at this point the contract's timelock functionality is non-custodial"
      },
      "setLockPlan(address,uint256[],uint256[])": {
        "params": {
          "amounts": ", amount of locking token",
          "recipient": ", address of recipient.",
          "unlockTimestamps": ", timestamp when token is unlocked"
        }
      },
      "transferAccidentallyLockedEth(uint256)": {
        "details": "Function to withdraw Eth in case Eth is accidently sent to this contract.",
        "params": {
          "amount": "of network tokens to withdraw (in wei)."
        }
      },
      "transferAccidentallyLockedOtherTokens(address,uint256)": {
        "details": "Transfer accidentally locked ERC20 tokens.",
        "params": {
          "amount": "of ERC20 tokens to remove.",
          "token": "- ERC20 token address."
        }
      },
      "transferAccidentallyLockedTokens(uint256)": {
        "details": "Transfer accidentally locked tokens.",
        "params": {
          "amount": "of ERC20 tokens to remove."
        }
      },
      "withdrawUnlockedToken(address,uint256)": {
        "details": "Allows recipient to unlock tokens after 24 month period has elapsed",
        "params": {
          "recipient": "- the recipient's account address.",
          "withdrawAmount": "- the amount to unlock (in wei)"
        }
      }
    },
    "version": 1
  },
  "userdoc": {
    "kind": "user",
    "methods": {},
    "version": 1
  }
}