{
  "contractName": "TokenLockPlan",
  "abi": [
    {
      "inputs": [
        {
          "internalType": "contract IERC20",
          "name": "_erc20_contract_address",
          "type": "address"
        },
        {
          "internalType": "enum TokenLockPlan.PrivacyLevel",
          "name": "_privacyLevel",
          "type": "uint8"
        }
      ],
      "stateMutability": "nonpayable",
      "type": "constructor"
    },
    {
      "anonymous": false,
      "inputs": [
        {
          "indexed": false,
          "internalType": "address",
          "name": "from",
          "type": "address"
        },
        {
          "indexed": false,
          "internalType": "uint256",
          "name": "amount",
          "type": "uint256"
        }
      ],
      "name": "EthDeposited",
      "type": "event"
    },
    {
      "anonymous": false,
      "inputs": [
        {
          "indexed": false,
          "internalType": "address",
          "name": "recipient",
          "type": "address"
        },
        {
          "indexed": false,
          "internalType": "uint256",
          "name": "amount",
          "type": "uint256"
        }
      ],
      "name": "TokensLocked",
      "type": "event"
    },
    {
      "anonymous": false,
      "inputs": [
        {
          "indexed": false,
          "internalType": "address",
          "name": "recipient",
          "type": "address"
        },
        {
          "indexed": false,
          "internalType": "uint256",
          "name": "amount",
          "type": "uint256"
        }
      ],
      "name": "TokensWithdrawed",
      "type": "event"
    },
    {
      "inputs": [
        {
          "internalType": "address",
          "name": "",
          "type": "address"
        }
      ],
      "name": "alreadyWithdrawn",
      "outputs": [
        {
          "internalType": "uint256",
          "name": "",
          "type": "uint256"
        }
      ],
      "stateMutability": "view",
      "type": "function"
    },
    {
      "inputs": [
        {
          "internalType": "address",
          "name": "",
          "type": "address"
        }
      ],
      "name": "balances",
      "outputs": [
        {
          "internalType": "uint256",
          "name": "",
          "type": "uint256"
        }
      ],
      "stateMutability": "view",
      "type": "function"
    },
    {
      "inputs": [],
      "name": "contractEthBalance",
      "outputs": [
        {
          "internalType": "uint256",
          "name": "",
          "type": "uint256"
        }
      ],
      "stateMutability": "view",
      "type": "function"
    },
    {
      "inputs": [],
      "name": "erc20Contract",
      "outputs": [
        {
          "internalType": "contract IERC20",
          "name": "",
          "type": "address"
        }
      ],
      "stateMutability": "view",
      "type": "function"
    },
    {
      "inputs": [],
      "name": "isLocked",
      "outputs": [
        {
          "internalType": "bool",
          "name": "",
          "type": "bool"
        }
      ],
      "stateMutability": "view",
      "type": "function"
    },
    {
      "inputs": [
        {
          "internalType": "address",
          "name": "",
          "type": "address"
        }
      ],
      "name": "lockPlanLengths",
      "outputs": [
        {
          "internalType": "uint256",
          "name": "",
          "type": "uint256"
        }
      ],
      "stateMutability": "view",
      "type": "function"
    },
    {
      "inputs": [
        {
          "internalType": "address",
          "name": "",
          "type": "address"
        },
        {
          "internalType": "uint256",
          "name": "",
          "type": "uint256"
        }
      ],
      "name": "lockPlans",
      "outputs": [
        {
          "internalType": "uint256",
          "name": "amount",
          "type": "uint256"
        },
        {
          "internalType": "uint256",
          "name": "unlockAfterSecs",
          "type": "uint256"
        }
      ],
      "stateMutability": "view",
      "type": "function"
    },
    {
      "inputs": [],
      "name": "lockStartTimestamp",
      "outputs": [
        {
          "internalType": "uint256",
          "name": "",
          "type": "uint256"
        }
      ],
      "stateMutability": "view",
      "type": "function"
    },
    {
      "inputs": [],
      "name": "owner",
      "outputs": [
        {
          "internalType": "address payable",
          "name": "",
          "type": "address"
        }
      ],
      "stateMutability": "view",
      "type": "function"
    },
    {
      "inputs": [],
      "name": "privacyLevel",
      "outputs": [
        {
          "internalType": "enum TokenLockPlan.PrivacyLevel",
          "name": "",
          "type": "uint8"
        }
      ],
      "stateMutability": "view",
      "type": "function"
    },
    {
      "inputs": [],
      "name": "totalBalance",
      "outputs": [
        {
          "internalType": "uint256",
          "name": "",
          "type": "uint256"
        }
      ],
      "stateMutability": "view",
      "type": "function"
    },
    {
      "stateMutability": "payable",
      "type": "receive"
    },
    {
      "inputs": [],
      "name": "lockup",
      "outputs": [],
      "stateMutability": "nonpayable",
      "type": "function"
    },
    {
      "inputs": [
        {
          "internalType": "address",
          "name": "recipient",
          "type": "address"
        },
        {
          "internalType": "uint256[]",
          "name": "unlockAfterSecs",
          "type": "uint256[]"
        },
        {
          "internalType": "uint256[]",
          "name": "lockAmounts",
          "type": "uint256[]"
        }
      ],
      "name": "setLockPlan",
      "outputs": [],
      "stateMutability": "nonpayable",
      "type": "function"
    },
    {
      "inputs": [
        {
          "internalType": "address[]",
          "name": "recipients",
          "type": "address[]"
        },
        {
          "internalType": "uint256[][]",
          "name": "unlockAfterSecss",
          "type": "uint256[][]"
        },
        {
          "internalType": "uint256[][]",
          "name": "lockAmountss",
          "type": "uint256[][]"
        }
      ],
      "name": "bulkSetLockPlan",
      "outputs": [],
      "stateMutability": "nonpayable",
      "type": "function"
    },
    {
      "inputs": [],
      "name": "checkMyUnlockedTokenBalance",
      "outputs": [
        {
          "internalType": "uint256",
          "name": "",
          "type": "uint256"
        }
      ],
      "stateMutability": "view",
      "type": "function"
    },
    {
      "inputs": [
        {
          "internalType": "address",
          "name": "recipient",
          "type": "address"
        }
      ],
      "name": "checkUserUnlockedTokenBalance",
      "outputs": [
        {
          "internalType": "uint256",
          "name": "",
          "type": "uint256"
        }
      ],
      "stateMutability": "view",
      "type": "function"
    },
    {
      "inputs": [
        {
          "internalType": "uint256",
          "name": "withdrawAmount",
          "type": "uint256"
        }
      ],
      "name": "withdrawMyUnlockedToken",
      "outputs": [],
      "stateMutability": "nonpayable",
      "type": "function"
    },
    {
      "inputs": [
        {
          "internalType": "address",
          "name": "recipient",
          "type": "address"
        },
        {
          "internalType": "uint256",
          "name": "withdrawAmount",
          "type": "uint256"
        }
      ],
      "name": "withdrawUserUnlockedToken",
      "outputs": [],
      "stateMutability": "nonpayable",
      "type": "function"
    },
    {
      "inputs": [],
      "name": "depositedEthBalance",
      "outputs": [
        {
          "internalType": "uint256",
          "name": "",
          "type": "uint256"
        }
      ],
      "stateMutability": "view",
      "type": "function"
    },
    {
      "inputs": [
        {
          "internalType": "uint256",
          "name": "amount",
          "type": "uint256"
        }
      ],
      "name": "transferDepositedTokensToOnwer",
      "outputs": [],
      "stateMutability": "nonpayable",
      "type": "function"
    },
    {
      "inputs": [
        {
          "internalType": "uint256",
          "name": "amount",
          "type": "uint256"
        }
      ],
      "name": "transferAccidentallyDepositedTokensToOnwer",
      "outputs": [],
      "stateMutability": "nonpayable",
      "type": "function"
    },
    {
      "inputs": [
        {
          "internalType": "contract IERC20",
          "name": "token",
          "type": "address"
        },
        {
          "internalType": "uint256",
          "name": "amount",
          "type": "uint256"
        }
      ],
      "name": "transferAccidentallyDepositedOtherTokensToOnwer",
      "outputs": [],
      "stateMutability": "nonpayable",
      "type": "function"
    },
    {
      "inputs": [
        {
          "internalType": "uint256",
          "name": "amount",
          "type": "uint256"
        }
      ],
      "name": "transferAccidentallyDepositedEthToOnwer",
      "outputs": [],
      "stateMutability": "nonpayable",
      "type": "function"
    }
  ],
  "bytecode": "0x60806040523480156200001157600080fd5b5060405162001fcf38038062001fcf833981016040819052620000349162000122565b6001600081905580546001600160a81b03198116610100330290811783558392916001600160b01b03191660ff60a81b1990911617600160a81b8360028111156200008357620000836200016f565b02179055506001600160a01b038216620000fb5760405162461bcd60e51b815260206004820152602f60248201527f5f65726332305f636f6e74726163745f6164647265737320616464726573732060448201526e63616e206e6f74206265207a65726f60881b606482015260840160405180910390fd5b50600980546001600160a01b0319166001600160a01b039290921691909117905562000185565b600080604083850312156200013657600080fd5b82516001600160a01b03811681146200014e57600080fd5b6020840151909250600381106200016457600080fd5b809150509250929050565b634e487b7160e01b600052602160045260246000fd5b611e3a80620001956000396000f3fe6080604052600436106101445760003560e01c80635d58ce36116100b6578063a4e2d6341161006f578063a4e2d63414610436578063a8f6c91314610460578063ad7a672f14610480578063d0b1a9c314610496578063d8c0681e146104b6578063e41cfffb146104d657600080fd5b80635d58ce361461034957806365809fc31461035f5780637562e3aa1461037f5780638da5cb5b146103ac57806391785399146103e95780639aa2e39e1461040957600080fd5b806327e235e31161010857806327e235e31461026e5780632f3dc9151461029b5780633ca5b99d146102bb5780633fe3afa3146102e957806344ecd5fe146103095780634aa1ba5b1461032957600080fd5b8063054a563d146101c457806306490f47146101fe57806307245e2914610215578063181f57421461023957806324217e511461024e57600080fd5b366101bf5760015460ff16156101755760405162461bcd60e51b815260040161016c90611953565b60405180910390fd5b60075461018290346104eb565b600755604080513381523460208201527f66ff7c8f71ccc7c36152a41920d0d3b46ef3034359f76aa1498ed4478c204b5c910160405180910390a1005b600080fd5b3480156101d057600080fd5b506101e46101df366004611991565b610500565b604080519283526020830191909152015b60405180910390f35b34801561020a57600080fd5b5061021361053c565b005b34801561022157600080fd5b5061022b60085481565b6040519081526020016101f5565b34801561024557600080fd5b5061022b610683565b34801561025a57600080fd5b50610213610269366004611991565b6106f5565b34801561027a57600080fd5b5061022b6102893660046119bd565b60046020526000908152604090205481565b3480156102a757600080fd5b506102136102b6366004611a26565b610799565b3480156102c757600080fd5b506001546102dc90600160a81b900460ff1681565b6040516101f59190611ad6565b3480156102f557600080fd5b50610213610304366004611afe565b610916565b34801561031557600080fd5b5061022b6103243660046119bd565b610923565b34801561033557600080fd5b50610213610344366004611991565b6109c4565b34801561035557600080fd5b5061022b60075481565b34801561036b57600080fd5b5061021361037a366004611afe565b610b27565b34801561038b57600080fd5b5061022b61039a3660046119bd565b60036020526000908152604090205481565b3480156103b857600080fd5b506001546103d19061010090046001600160a01b031681565b6040516001600160a01b0390911681526020016101f5565b3480156103f557600080fd5b50610213610404366004611afe565b610bcb565b34801561041557600080fd5b5061022b6104243660046119bd565b60056020526000908152604090205481565b34801561044257600080fd5b506001546104509060ff1681565b60405190151581526020016101f5565b34801561046c57600080fd5b506009546103d1906001600160a01b031681565b34801561048c57600080fd5b5061022b60065481565b3480156104a257600080fd5b506102136104b1366004611b17565b610cb6565b3480156104c257600080fd5b506102136104d1366004611afe565b610f61565b3480156104e257600080fd5b5061022b6111b7565b60006104f78284611bb0565b90505b92915050565b6002602052816000526040600020818154811061051c57600080fd5b600091825260209091206002909102018054600190910154909250905082565b60015461010090046001600160a01b0316331461056b5760405162461bcd60e51b815260040161016c90611bc3565b60015460ff161561058e5760405162461bcd60e51b815260040161016c90611953565b6006546009546040516370a0823160e01b81523060048201526001600160a01b03909116906370a0823190602401602060405180830381865afa1580156105d9573d6000803e3d6000fd5b505050506040513d601f19601f820116820180604052508101906105fd9190611c0f565b10156106715760405162461bcd60e51b815260206004820152603d60248201527f4465706f697374656420636f6e74726163742062616c616e6365206973206c6560448201527f7373207468616e20746f74616c206c6f636b696e6720616d6f756e742e000000606482015260840161016c565b426008556001805460ff191681179055565b6009546040516370a0823160e01b81523060048201526000916001600160a01b0316906370a0823190602401602060405180830381865afa1580156106cc573d6000803e3d6000fd5b505050506040513d601f19601f820116820180604052508101906106f09190611c0f565b905090565b6002600154600160a81b900460ff16600281111561071557610715611ac0565b14158015610740575060018054600160a81b900460ff16600281111561073d5761073d611ac0565b14155b61075c5760405162461bcd60e51b815260040161016c90611c28565b60015461010090046001600160a01b0316331461078b5760405162461bcd60e51b815260040161016c90611bc3565b61079582826111c2565b5050565b60015461010090046001600160a01b031633146107c85760405162461bcd60e51b815260040161016c90611bc3565b60015460ff16156107eb5760405162461bcd60e51b815260040161016c90611953565b84831480156107f957508281145b61087e5760405162461bcd60e51b815260206004820152604a60248201527f54686520726563697069656e74732c20756e6c6f636b4166746572536563737360448201527f20616e64206c6f636b416d6f756e747373206d7573742062652074686520736160648201526936b2903632b733ba341760b11b608482015260a40161016c565b60005b8581101561090d576108fb87878381811061089e5761089e611c75565b90506020020160208101906108b391906119bd565b8686848181106108c5576108c5611c75565b90506020028101906108d79190611c8b565b8686868181106108e9576108e9611c75565b90506020028101906104b19190611c8b565b8061090581611cd5565b915050610881565b50505050505050565b61092033826111c2565b50565b60006002600154600160a81b900460ff16600281111561094557610945611ac0565b14158015610970575060018054600160a81b900460ff16600281111561096d5761096d611ac0565b14155b61098c5760405162461bcd60e51b815260040161016c90611c28565b60015461010090046001600160a01b031633146109bb5760405162461bcd60e51b815260040161016c90611bc3565b6104fa8261155c565b60015461010090046001600160a01b031633146109f35760405162461bcd60e51b815260040161016c90611bc3565b600260005403610a155760405162461bcd60e51b815260040161016c90611cee565b60026000556001600160a01b038216610a705760405162461bcd60e51b815260206004820152601e60248201527f546f6b656e20616464726573732063616e206e6f74206265207a65726f2e0000604482015260640161016c565b6009546001600160a01b0390811690831603610aff5760405162461bcd60e51b815260206004820152604260248201527f4f6e6c7920746f6b656e207768696368206973206e6f74206c6f636b6564206260448201527f79207468697320636f6e74726163742063616e206265207472616e7366657265606482015261321760f11b608482015260a40161016c565b600154610b1e906001600160a01b038481169161010090041683611660565b50506001600055565b60015461010090046001600160a01b03163314610b565760405162461bcd60e51b815260040161016c90611bc3565b600260005403610b785760405162461bcd60e51b815260040161016c90611cee565b600260005560015460ff1615610ba05760405162461bcd60e51b815260040161016c90611953565b600154600954610bc3916001600160a01b03918216916101009091041683611660565b506001600055565b60015461010090046001600160a01b03163314610bfa5760405162461bcd60e51b815260040161016c90611bc3565b600260005403610c1c5760405162461bcd60e51b815260040161016c90611cee565b6002600055600754811115610c685760405162461bcd60e51b8152602060048201526012602482015271496e73756666696369656e742066756e647360701b604482015260640161016c565b600754610c7590826116b7565b6007556001546040516101009091046001600160a01b0316906108fc8315029083906000818181858888f19350505050158015610b1e573d6000803e3d6000fd5b60015461010090046001600160a01b03163314610ce55760405162461bcd60e51b815260040161016c90611bc3565b60015460ff1615610d085760405162461bcd60e51b815260040161016c90611953565b6001600160a01b038516610d6a5760405162461bcd60e51b8152602060048201526024808201527f45524332303a207472616e7366657220746f20746865207a65726f206164647260448201526332b9b99760e11b606482015260840161016c565b828114610ddf5760405162461bcd60e51b815260206004820152603c60248201527f54686520756e6c6f636b41667465725365637320616e64206c6f636b416d6f7560448201527f6e7473206d757374206265207468652073616d65206c656e6774682e00000000606482015260840161016c565b6001600160a01b0385166000908152600260205260408120610e0091611918565b60005b83811015610f59576000858583818110610e1f57610e1f611c75565b9050602002013590506000848484818110610e3c57610e3c611c75565b6001600160a01b038b1660008181526002602081815260408084208151808301835296830298909801358087528683018b8152895460018181018c559a87528487209851950290970193845595519288019290925592825260039092522054909350610eaa929091506104eb565b6001600160a01b038916600090815260036020908152604080832093909355600490522054610ed990826104eb565b6001600160a01b038916600090815260046020526040902055600654610eff90826104eb565b600655604080516001600160a01b038a168152602081018390527fac87f20a77d28ee8bbb58ec87ea8fa968b3393efae1a368fd50b767c2847391c910160405180910390a150508080610f5190611cd5565b915050610e03565b505050505050565b60015461010090046001600160a01b03163314610f905760405162461bcd60e51b815260040161016c90611bc3565b600260005403610fb25760405162461bcd60e51b815260040161016c90611cee565b60026000556001805460ff16151514610fdd5760405162461bcd60e51b815260040161016c90611d25565b6006546009546040516370a0823160e01b81523060048201526001600160a01b03909116906370a0823190602401602060405180830381865afa158015611028573d6000803e3d6000fd5b505050506040513d601f19601f8201168201806040525081019061104c9190611c0f565b116110b15760405162461bcd60e51b815260206004820152602f60248201527f5468657265206973206e6f206d6f7265206163636964656e74616c6c7920646560448201526e3837b9b4ba32b2103a37b5b2b7399760891b606482015260840161016c565b6006546009546040516370a0823160e01b8152306004820152839261112e9290916001600160a01b03909116906370a0823190602401602060405180830381865afa158015611104573d6000803e3d6000fd5b505050506040513d601f19601f820116820180604052508101906111289190611c0f565b906116b7565b10610ba05760405162461bcd60e51b815260206004820152604d60248201527f54686520616d6f756e7420746861742074727920746f207472616e736665722060448201527f697320626967676572207468616e206163636964656e74616c6c79206465706f60648201526c39b4ba32b21030b6b7bab73a1760991b608482015260a40161016c565b60006106f03361155c565b6002600054036111e45760405162461bcd60e51b815260040161016c90611cee565b60026000556001805460ff1615151461120f5760405162461bcd60e51b815260040161016c90611d25565b6001600160a01b0382166112715760405162461bcd60e51b815260206004820152602360248201527f45524332303a207472616e7366657220746f20746865207a65726f206164647260448201526265737360e81b606482015260840161016c565b6009546040516370a0823160e01b815230600482015282916001600160a01b0316906370a0823190602401602060405180830381865afa1580156112b9573d6000803e3d6000fd5b505050506040513d601f19601f820116820180604052508101906112dd9190611c0f565b10156113515760405162461bcd60e51b815260206004820152603860248201527f496e73756666696369656e7420636f6e7472616374277320746f6b656e20626160448201527f6c616e63652c20747279206c657373657220616d6f756e740000000000000000606482015260840161016c565b6001600160a01b0382166000908152600460205260409020548111156113df5760405162461bcd60e51b815260206004820152603960248201527f496e73756666696369656e7420726563697069656e74277320746f6b656e206260448201527f616c616e63652c20747279206c657373657220616d6f756e7400000000000000606482015260840161016c565b60006113ea8361155c565b6001600160a01b038416600090815260056020526040812054919250906114129083906116b7565b90508281101561147d5760405162461bcd60e51b815260206004820152603060248201527f536f6d6520746f6b656e7320617265207374696c6c206c6f636b65642c20747260448201526f3c903632b9b9b2b91030b6b7bab73a1760811b606482015260840161016c565b6001600160a01b0384166000908152600560205260409020546114a090846104eb565b6001600160a01b0385166000908152600560209081526040808320939093556004905220546114cf90846116b7565b6001600160a01b0385166000908152600460205260409020556006546114f590846116b7565b60065560095461150f906001600160a01b03168585611660565b604080516001600160a01b0386168152602081018590527f68761d62bcdb81c04d8529c871fffa698303c79d20997890d04b2b56022bef76910160405180910390a1505060016000555050565b6001805460009160ff9091161515146115875760405162461bcd60e51b815260040161016c90611d25565b6000805b6001600160a01b038416600090815260026020526040902054811015611659576001600160a01b03841660009081526002602052604081208054839081106115d5576115d5611c75565b60009182526020808320600292830201546001600160a01b0389168452919052604082208054919350908490811061160f5761160f611c75565b9060005260206000209060020201600101549050806008546116319190611bb0565b42106116445761164184836104eb565b93505b5050808061165190611cd5565b91505061158b565b5092915050565b604080516001600160a01b038416602482015260448082018490528251808303909101815260649091019091526020810180516001600160e01b031663a9059cbb60e01b1790526116b29084906116c3565b505050565b60006104f78284611d5c565b6000611718826040518060400160405280602081526020017f5361666545524332303a206c6f772d6c6576656c2063616c6c206661696c6564815250856001600160a01b03166117959092919063ffffffff16565b8051909150156116b257808060200190518101906117369190611d6f565b6116b25760405162461bcd60e51b815260206004820152602a60248201527f5361666545524332303a204552433230206f7065726174696f6e20646964206e6044820152691bdd081cdd58d8d9595960b21b606482015260840161016c565b60606117a484846000856117ae565b90505b9392505050565b60608247101561180f5760405162461bcd60e51b815260206004820152602660248201527f416464726573733a20696e73756666696369656e742062616c616e636520666f6044820152651c8818d85b1b60d21b606482015260840161016c565b6001600160a01b0385163b6118665760405162461bcd60e51b815260206004820152601d60248201527f416464726573733a2063616c6c20746f206e6f6e2d636f6e7472616374000000604482015260640161016c565b600080866001600160a01b031685876040516118829190611db5565b60006040518083038185875af1925050503d80600081146118bf576040519150601f19603f3d011682016040523d82523d6000602084013e6118c4565b606091505b50915091506118d48282866118df565b979650505050505050565b606083156118ee5750816117a7565b8251156118fe5782518084602001fd5b8160405162461bcd60e51b815260040161016c9190611dd1565b508054600082556002029060005260206000209081019061092091905b8082111561194f5760008082556001820155600201611935565b5090565b6020808252600f908201526e283630b71034b9903637b1b5b2b21760891b604082015260600190565b6001600160a01b038116811461092057600080fd5b600080604083850312156119a457600080fd5b82356119af8161197c565b946020939093013593505050565b6000602082840312156119cf57600080fd5b81356117a78161197c565b60008083601f8401126119ec57600080fd5b50813567ffffffffffffffff811115611a0457600080fd5b6020830191508360208260051b8501011115611a1f57600080fd5b9250929050565b60008060008060008060608789031215611a3f57600080fd5b863567ffffffffffffffff80821115611a5757600080fd5b611a638a838b016119da565b90985096506020890135915080821115611a7c57600080fd5b611a888a838b016119da565b90965094506040890135915080821115611aa157600080fd5b50611aae89828a016119da565b979a9699509497509295939492505050565b634e487b7160e01b600052602160045260246000fd5b6020810160038310611af857634e487b7160e01b600052602160045260246000fd5b91905290565b600060208284031215611b1057600080fd5b5035919050565b600080600080600060608688031215611b2f57600080fd5b8535611b3a8161197c565b9450602086013567ffffffffffffffff80821115611b5757600080fd5b611b6389838a016119da565b90965094506040880135915080821115611b7c57600080fd5b50611b89888289016119da565b969995985093965092949392505050565b634e487b7160e01b600052601160045260246000fd5b808201808211156104fa576104fa611b9a565b6020808252602c908201527f4d6573736167652073656e646572206d7573742062652074686520636f6e747260408201526b30b1ba13b99037bbb732b91760a11b606082015260800190565b600060208284031215611c2157600080fd5b5051919050565b6020808252602d908201527f43616e6e6f74206163636573732062656361757365206f66207072697661637960408201526c103632bb32b6101426a4a2149760991b606082015260800190565b634e487b7160e01b600052603260045260246000fd5b6000808335601e19843603018112611ca257600080fd5b83018035915067ffffffffffffffff821115611cbd57600080fd5b6020019150600581901b3603821315611a1f57600080fd5b600060018201611ce757611ce7611b9a565b5060010190565b6020808252601f908201527f5265656e7472616e637947756172643a207265656e7472616e742063616c6c00604082015260600190565b60208082526017908201527f506c616e206973206e6f74206c6f636b6564207965742e000000000000000000604082015260600190565b818103818111156104fa576104fa611b9a565b600060208284031215611d8157600080fd5b815180151581146117a757600080fd5b60005b83811015611dac578181015183820152602001611d94565b50506000910152565b60008251611dc7818460208701611d91565b9190910192915050565b6020815260008251806020840152611df0816040850160208701611d91565b601f01601f1916919091016040019291505056fea2646970667358221220d764128f3888ce60c3796cfe2e725c67011ae7b25d2e984b14075366b7eb6a6164736f6c63430008100033",
  "immutableReferences": {},
  "source": "// SPDX-License-Identifier: MIT\npragma solidity 0.8.16;\n\nimport \"@openzeppelin/contracts/token/ERC20/utils/SafeERC20.sol\";\n\nimport \"@openzeppelin/contracts/security/ReentrancyGuard.sol\";\n\nimport \"openzeppelin-solidity/contracts/utils/math/SafeMath.sol\";\n\ncontract TokenLockPlan is ReentrancyGuard {\n\n    struct LockPlan {\n        uint256 amount;\n        uint256 unlockAfterSecs;\n    }\n\n    /// @dev Define Privacy Level\n    /// HIGH - All information is closed, also the recipient of plan can only touch their tokens. (WIP)\n    /// MID - All information is opened, but the owner of contract cannot touch other users' token.\n    /// LOW - All information is opened, also the owner of contract can touch other users' token.\n    enum PrivacyLevel {\n        LOW,\n        MID,\n        HIGH\n    }\n\n    // Flags\n    bool public isLocked;\n\n    // Library usage\n    using SafeERC20 for IERC20;\n    using SafeMath for uint256;\n\n    // Contract owner\n    address payable public owner;\n\n    // Contract privacy level\n    PrivacyLevel public privacyLevel;\n\n    // Lock Plan\n    mapping(address => LockPlan[]) public lockPlans;\n    mapping(address => uint256) public lockPlanLengths;\n\n    // Token Balance\n    mapping(address => uint256) public balances;\n    mapping(address => uint256) public alreadyWithdrawn;\n    uint256 public totalBalance;\n    uint256 public contractEthBalance;\n\n    // Lock Timestamp\n    uint256 public lockStartTimestamp;\n\n    // Lock ERC20 Contract\n    IERC20 public erc20Contract;\n\n    // Events\n    event EthDeposited(address from, uint256 amount);\n    event TokensLocked(address recipient, uint256 amount);\n    event TokensWithdrawed(address recipient, uint256 amount);\n\n    /// @dev Deploys contract and links the ERC20 token which we are locking.\n    /// @param _erc20_contract_address, the ERC20 token address that we are locking\n    constructor(IERC20 _erc20_contract_address, PrivacyLevel _privacyLevel) {\n        // Allow this contract's owner to make deposits by setting allIncomingDepositsFinalised to false\n        isLocked = false;\n\n        // Set contract owner\n        owner = payable(msg.sender);\n\n        // Set privacy level\n        privacyLevel = _privacyLevel;\n\n        // Set the erc20 contract address which this timelock is deliberately paired to\n        require(address(_erc20_contract_address) != address(0), \"_erc20_contract_address address can not be zero\");\n        erc20Contract = _erc20_contract_address;\n    }\n\n    /// @dev the plan should be locked\n    modifier locked() {\n        require(isLocked == true, \"Plan is not locked yet.\");\n        _;\n    }\n\n    /// @dev the plan should be unlocked\n    modifier notLocked() {\n        require(isLocked == false, \"Plan is locked.\");\n        _;\n    }\n\n    /// @dev only owner can call\n    modifier onlyOwner() {\n        require(msg.sender == owner, \"Message sender must be the contract's owner.\");\n        _;\n    }\n\n    modifier privacyLevelLowerHigh() {\n        require(privacyLevel != PrivacyLevel.HIGH, \"Cannot access because of privacy level (HGIH).\");\n        _;\n    }\n\n    modifier privacyLevelLowerMid() {\n        require(privacyLevel != PrivacyLevel.HIGH && privacyLevel != PrivacyLevel.MID, \"Cannot access because of privacy level (MID).\");\n        _;\n    }\n\n    receive() payable external notLocked {\n        /// Tracking accidently deposited ETH for later\n        contractEthBalance = contractEthBalance.add(msg.value);\n        emit EthDeposited(msg.sender, msg.value);\n    }\n\n    /// @dev Lockup the Plan\n    /// This will lockup the plan, and the owner will not able to transfer the target token anymore.\n    /// The owner can only transfer the target token that excceed total balance of lock plan.\n    function lockup() public onlyOwner notLocked {\n        // Check contract balance is equal to all locked token amount.\n        require(erc20Contract.balanceOf(address(this)) >= totalBalance, \"Depoisted contract balance is less than total locking amount.\");\n\n        // Record Lock Start Time\n        lockStartTimestamp = block.timestamp;\n\n        // Make owner cannot access anymore\n        isLocked = true;\n    }\n\n    /// @dev Set the Lock Plan for recipient.\n    /// The original lock plan of recipient will be replaced by this new plan.\n    /// @param recipient, the address of recipient\n    /// @param unlockAfterSecs, the seconds to unlock after the lock (in secs)\n    /// @param lockAmounts, amount of locking token\n    function setLockPlan(address recipient, uint256[] calldata unlockAfterSecs, uint256[] calldata lockAmounts) public onlyOwner notLocked {\n        require(recipient != address(0), \"ERC20: transfer to the zero address.\");\n        require(unlockAfterSecs.length == lockAmounts.length, \"The unlockAfterSecs and lockAmounts must be the same length.\");\n        \n        // Delete the original lock plan\n        delete lockPlans[recipient];\n\n        for(uint256 i = 0; i < unlockAfterSecs.length; i++)\n        {\n            uint256 unlockAfterSec = unlockAfterSecs[i];\n            uint256 lockAmount = lockAmounts[i];\n\n            // Add lock plan\n            lockPlans[recipient].push(\n                LockPlan(\n                    lockAmount,\n                    unlockAfterSec\n                )\n            );\n            lockPlanLengths[recipient] = lockPlanLengths[recipient].add(1);\n\n            // Track lock balance\n            balances[recipient] = balances[recipient].add(lockAmount);\n            totalBalance = totalBalance.add(lockAmount);\n\n            emit TokensLocked(recipient, lockAmount);\n        }\n    }\n\n    /// @dev Set the Lock Plans for many recipient.\n    /// The original lock plan of recipient will be replaced by this new plan.\n    /// @param recipients, the address of recipient\n    /// @param unlockAfterSecss, the seconds to unlock after the lock (in secs)\n    /// @param lockAmountss, amount of locking token\n    function bulkSetLockPlan(address[] calldata recipients, uint256[][] calldata unlockAfterSecss, uint256[][] calldata lockAmountss) external onlyOwner notLocked {\n        require(recipients.length == unlockAfterSecss.length && unlockAfterSecss.length == lockAmountss.length, \"The recipients, unlockAfterSecss and lockAmountss must be the same length.\");\n        \n        for(uint256 i = 0; i < recipients.length; i++)\n        {\n            setLockPlan(recipients[i], unlockAfterSecss[i], lockAmountss[i]);\n        }\n    }\n\n    /// @dev Check how many tokens has been unlocked for me.\n    function checkMyUnlockedTokenBalance() public view returns (uint256) {\n        return checkUnlockedTokenBalance(msg.sender);\n    }\n\n    /// @dev Check how many tokens has been unlocked for recipient.\n    /// @param recipient, the address of recipient\n    function checkUserUnlockedTokenBalance(address recipient) public privacyLevelLowerMid onlyOwner view returns (uint256) {\n        return checkUnlockedTokenBalance(recipient);\n    }\n\n    /// @dev Check how many tokens has been unlocked for recipient.\n    /// @param recipient, the address of recipient\n    function checkUnlockedTokenBalance(address recipient) private locked view returns (uint256) {\n        // Calculate unlocked token balance\n        uint256 unlockedBalance = 0;\n        for(uint256 i = 0; i < lockPlans[recipient].length; i++)\n        {\n            uint256 amount = lockPlans[recipient][i].amount;\n            uint256 unlockAfterSecs = lockPlans[recipient][i].unlockAfterSecs;\n\n            if(block.timestamp >= lockStartTimestamp + unlockAfterSecs)\n            {\n                unlockedBalance = unlockedBalance.add(amount);\n            }\n        }\n\n        return unlockedBalance;\n    }\n\n    /// @dev Withdraw my unlocked token\n    /// @param withdrawAmount, the amount of withdrawing token (in wei)\n    function withdrawMyUnlockedToken(uint256 withdrawAmount) public {\n        withdrawUnlockedToken(msg.sender, withdrawAmount);\n    }\n\n    /// @dev Withdraw user unlocked token\n    /// @param recipient, the address of recipient\n    /// @param withdrawAmount, the amount of withdrawing token (in wei)\n    function withdrawUserUnlockedToken(address recipient, uint256 withdrawAmount) public privacyLevelLowerMid onlyOwner {\n        withdrawUnlockedToken(recipient, withdrawAmount);\n    }\n\n    /// @dev Withdraw unlocked token of sender\n    /// @param recipient, the address of recipient\n    /// @param withdrawAmount, the amount of withdrawing token (in wei)\n    function withdrawUnlockedToken(address recipient, uint256 withdrawAmount) private nonReentrant locked {\n        // Validate\n        require(recipient != address(0), \"ERC20: transfer to the zero address\");\n        require(erc20Contract.balanceOf(address(this)) >= withdrawAmount, \"Insufficient contract's token balance, try lesser amount\");\n        require(balances[recipient] >= withdrawAmount, \"Insufficient recipient's token balance, try lesser amount\");\n\n        // Calculate unlocked token balance\n        uint256 unlockedBalance = checkUnlockedTokenBalance(recipient);\n        \n        // Calaculate withdrawable token balance\n        uint256 withdrawableAmount = unlockedBalance.sub(alreadyWithdrawn[recipient]);\n        require(withdrawableAmount >= withdrawAmount, \"Some tokens are still locked, try lesser amount.\");\n\n        // Transfer\n        alreadyWithdrawn[recipient] = alreadyWithdrawn[recipient].add(withdrawAmount);\n        balances[recipient] = balances[recipient].sub(withdrawAmount);\n        totalBalance = totalBalance.sub(withdrawAmount);\n        erc20Contract.safeTransfer(recipient, withdrawAmount);\n        emit TokensWithdrawed(recipient, withdrawAmount);\n    }\n\n    /// @dev Get balance of deposited ETH into this contract.\n    function depositedEthBalance() public view returns (uint256) {\n        return erc20Contract.balanceOf(address(this));\n    }\n\n    /// @dev Transfer deposited tokens before lockup to onwer.\n    /// @param amount, amount of ERC20 tokens to remove.\n    function transferDepositedTokensToOnwer(uint256 amount) public onlyOwner nonReentrant notLocked {\n        erc20Contract.safeTransfer(owner, amount);\n    }\n\n    /// @dev Transfer accidentally deposited tokens before lockup to onwer.\n    /// @param amount, amount of ERC20 tokens to remove.\n    function transferAccidentallyDepositedTokensToOnwer(uint256 amount) public onlyOwner nonReentrant locked {\n        require(erc20Contract.balanceOf(address(this)) > totalBalance, \"There is no more accidentally deposited tokens.\");\n        require(erc20Contract.balanceOf(address(this)).sub(totalBalance) < amount, \"The amount that try to transfer is bigger than accidentally deposited amount.\");\n\n        erc20Contract.safeTransfer(owner, amount);\n    }\n\n    /// @dev Transfer accidentally deposited other ERC20 tokens to onwer.\n    /// @param token, other ERC20 token contract address.\n    /// @param amount, amount of ERC20 tokens to remove.\n    function transferAccidentallyDepositedOtherTokensToOnwer(IERC20 token, uint256 amount) public onlyOwner nonReentrant {\n        // Validate\n        require(address(token) != address(0), \"Token address can not be zero.\");\n        require(token != erc20Contract, \"Only token which is not locked by this contract can be transfered.\");\n        \n        token.safeTransfer(owner, amount);\n    }\n\n    /// @dev Transfer accidently deposited ETH to onwer.\n    /// @param amount, of network tokens to withdraw (in wei).\n    function transferAccidentallyDepositedEthToOnwer(uint256 amount) public onlyOwner nonReentrant{\n        require(amount <= contractEthBalance, \"Insufficient funds\");\n        contractEthBalance = contractEthBalance.sub(amount);\n\n        // Transfer the specified amount of Eth to the owner of this contract\n        owner.transfer(amount);\n    }\n}",
  "sourcePath": "/Users/kyungyoonkim/blockchain/MultiTimeLock/contracts/TokenLockPlan.sol",
  "compiler": {
    "name": "solc",
    "version": "0.8.16+commit.07a7930e.Emscripten.clang"
  },
  "schemaVersion": "3.4.8",
  "updatedAt": "2022-08-23T08:35:58.781Z",
  "devdoc": {
    "kind": "dev",
    "methods": {
      "bulkSetLockPlan(address[],uint256[][],uint256[][])": {
        "details": "Set the Lock Plans for many recipient. The original lock plan of recipient will be replaced by this new plan.",
        "params": {
          "lockAmountss": ", amount of locking token",
          "recipients": ", the address of recipient",
          "unlockAfterSecss": ", the seconds to unlock after the lock (in secs)"
        }
      },
      "checkMyUnlockedTokenBalance()": {
        "details": "Check how many tokens has been unlocked for me."
      },
      "checkUserUnlockedTokenBalance(address)": {
        "details": "Check how many tokens has been unlocked for recipient.",
        "params": {
          "recipient": ", the address of recipient"
        }
      },
      "constructor": {
        "details": "Deploys contract and links the ERC20 token which we are locking.",
        "params": {
          "_erc20_contract_address": ", the ERC20 token address that we are locking"
        }
      },
      "depositedEthBalance()": {
        "details": "Get balance of deposited ETH into this contract."
      },
      "lockup()": {
        "details": "Lockup the Plan This will lockup the plan, and the owner will not able to transfer the target token anymore. The owner can only transfer the target token that excceed total balance of lock plan."
      },
      "setLockPlan(address,uint256[],uint256[])": {
        "details": "Set the Lock Plan for recipient. The original lock plan of recipient will be replaced by this new plan.",
        "params": {
          "lockAmounts": ", amount of locking token",
          "recipient": ", the address of recipient",
          "unlockAfterSecs": ", the seconds to unlock after the lock (in secs)"
        }
      },
      "transferAccidentallyDepositedEthToOnwer(uint256)": {
        "details": "Transfer accidently deposited ETH to onwer.",
        "params": {
          "amount": ", of network tokens to withdraw (in wei)."
        }
      },
      "transferAccidentallyDepositedOtherTokensToOnwer(address,uint256)": {
        "details": "Transfer accidentally deposited other ERC20 tokens to onwer.",
        "params": {
          "amount": ", amount of ERC20 tokens to remove.",
          "token": ", other ERC20 token contract address."
        }
      },
      "transferAccidentallyDepositedTokensToOnwer(uint256)": {
        "details": "Transfer accidentally deposited tokens before lockup to onwer.",
        "params": {
          "amount": ", amount of ERC20 tokens to remove."
        }
      },
      "transferDepositedTokensToOnwer(uint256)": {
        "details": "Transfer deposited tokens before lockup to onwer.",
        "params": {
          "amount": ", amount of ERC20 tokens to remove."
        }
      },
      "withdrawMyUnlockedToken(uint256)": {
        "details": "Withdraw my unlocked token",
        "params": {
          "withdrawAmount": ", the amount of withdrawing token (in wei)"
        }
      },
      "withdrawUserUnlockedToken(address,uint256)": {
        "details": "Withdraw user unlocked token",
        "params": {
          "recipient": ", the address of recipient",
          "withdrawAmount": ", the amount of withdrawing token (in wei)"
        }
      }
    },
    "version": 1
  },
  "userdoc": {
    "kind": "user",
    "methods": {},
    "version": 1
  }
}