{
  "contractName": "TokenLockPlan",
  "abi": [
    {
      "inputs": [
        {
          "internalType": "contract IERC20",
          "name": "_erc20_contract_address",
          "type": "address"
        }
      ],
      "stateMutability": "nonpayable",
      "type": "constructor"
    },
    {
      "anonymous": false,
      "inputs": [
        {
          "indexed": false,
          "internalType": "address",
          "name": "recipient",
          "type": "address"
        },
        {
          "indexed": false,
          "internalType": "uint256",
          "name": "amount",
          "type": "uint256"
        }
      ],
      "name": "AllocationPerformed",
      "type": "event"
    },
    {
      "anonymous": false,
      "inputs": [
        {
          "indexed": false,
          "internalType": "address",
          "name": "from",
          "type": "address"
        },
        {
          "indexed": false,
          "internalType": "uint256",
          "name": "amount",
          "type": "uint256"
        }
      ],
      "name": "TokensDeposited",
      "type": "event"
    },
    {
      "anonymous": false,
      "inputs": [
        {
          "indexed": false,
          "internalType": "address",
          "name": "recipient",
          "type": "address"
        },
        {
          "indexed": false,
          "internalType": "uint256",
          "name": "amount",
          "type": "uint256"
        }
      ],
      "name": "TokensUnlocked",
      "type": "event"
    },
    {
      "inputs": [
        {
          "internalType": "address",
          "name": "",
          "type": "address"
        }
      ],
      "name": "alreadyWithdrawn",
      "outputs": [
        {
          "internalType": "uint256",
          "name": "",
          "type": "uint256"
        }
      ],
      "stateMutability": "view",
      "type": "function",
      "constant": true
    },
    {
      "inputs": [
        {
          "internalType": "address",
          "name": "",
          "type": "address"
        }
      ],
      "name": "balances",
      "outputs": [
        {
          "internalType": "uint256",
          "name": "",
          "type": "uint256"
        }
      ],
      "stateMutability": "view",
      "type": "function",
      "constant": true
    },
    {
      "inputs": [],
      "name": "contractBalance",
      "outputs": [
        {
          "internalType": "uint256",
          "name": "",
          "type": "uint256"
        }
      ],
      "stateMutability": "view",
      "type": "function",
      "constant": true
    },
    {
      "inputs": [],
      "name": "erc20Contract",
      "outputs": [
        {
          "internalType": "contract IERC20",
          "name": "",
          "type": "address"
        }
      ],
      "stateMutability": "view",
      "type": "function",
      "constant": true
    },
    {
      "inputs": [],
      "name": "initialTimestamp",
      "outputs": [
        {
          "internalType": "uint256",
          "name": "",
          "type": "uint256"
        }
      ],
      "stateMutability": "view",
      "type": "function",
      "constant": true
    },
    {
      "inputs": [],
      "name": "isLocked",
      "outputs": [
        {
          "internalType": "bool",
          "name": "",
          "type": "bool"
        }
      ],
      "stateMutability": "view",
      "type": "function",
      "constant": true
    },
    {
      "inputs": [
        {
          "internalType": "address",
          "name": "",
          "type": "address"
        },
        {
          "internalType": "uint256",
          "name": "",
          "type": "uint256"
        }
      ],
      "name": "lockPlans",
      "outputs": [
        {
          "internalType": "uint256",
          "name": "amount",
          "type": "uint256"
        },
        {
          "internalType": "uint256",
          "name": "unlockTimestamp",
          "type": "uint256"
        }
      ],
      "stateMutability": "view",
      "type": "function",
      "constant": true
    },
    {
      "inputs": [],
      "name": "owner",
      "outputs": [
        {
          "internalType": "address payable",
          "name": "",
          "type": "address"
        }
      ],
      "stateMutability": "view",
      "type": "function",
      "constant": true
    },
    {
      "inputs": [],
      "name": "timestampSet",
      "outputs": [
        {
          "internalType": "bool",
          "name": "",
          "type": "bool"
        }
      ],
      "stateMutability": "view",
      "type": "function",
      "constant": true
    },
    {
      "stateMutability": "payable",
      "type": "receive",
      "payable": true
    },
    {
      "inputs": [],
      "name": "finalizeAllIncomingDeposits",
      "outputs": [],
      "stateMutability": "nonpayable",
      "type": "function"
    },
    {
      "inputs": [
        {
          "internalType": "uint256",
          "name": "amount",
          "type": "uint256"
        }
      ],
      "name": "withdrawEth",
      "outputs": [],
      "stateMutability": "nonpayable",
      "type": "function"
    },
    {
      "inputs": [
        {
          "internalType": "address",
          "name": "recipient",
          "type": "address"
        },
        {
          "internalType": "uint256[]",
          "name": "unlockTimestamps",
          "type": "uint256[]"
        },
        {
          "internalType": "uint256[]",
          "name": "amounts",
          "type": "uint256[]"
        }
      ],
      "name": "addLockPlan",
      "outputs": [],
      "stateMutability": "nonpayable",
      "type": "function"
    },
    {
      "inputs": [
        {
          "internalType": "address[]",
          "name": "recipients",
          "type": "address[]"
        },
        {
          "internalType": "uint256[]",
          "name": "amounts",
          "type": "uint256[]"
        }
      ],
      "name": "bulkDepositTokens",
      "outputs": [],
      "stateMutability": "nonpayable",
      "type": "function"
    },
    {
      "inputs": [
        {
          "internalType": "address",
          "name": "to",
          "type": "address"
        },
        {
          "internalType": "uint256",
          "name": "amount",
          "type": "uint256"
        }
      ],
      "name": "transferTimeLockedTokensAfterTimePeriod",
      "outputs": [],
      "stateMutability": "nonpayable",
      "type": "function"
    },
    {
      "inputs": [
        {
          "internalType": "contract IERC20",
          "name": "token",
          "type": "address"
        },
        {
          "internalType": "uint256",
          "name": "amount",
          "type": "uint256"
        }
      ],
      "name": "transferAccidentallyLockedTokens",
      "outputs": [],
      "stateMutability": "nonpayable",
      "type": "function"
    }
  ],
  "bytecode": "0x60806040523480156200001157600080fd5b506040516200283e3803806200283e8339818101604052810190620000379190620001ff565b60008060006101000a81548160ff02191690831515021790555033600060026101000a81548173ffffffffffffffffffffffffffffffffffffffff021916908373ffffffffffffffffffffffffffffffffffffffff1602179055506000600260006101000a81548160ff021916908315150217905550600073ffffffffffffffffffffffffffffffffffffffff168173ffffffffffffffffffffffffffffffffffffffff16036200011f576040517f08c379a00000000000000000000000000000000000000000000000000000000081526004016200011690620002b8565b60405180910390fd5b80600760006101000a81548173ffffffffffffffffffffffffffffffffffffffff021916908373ffffffffffffffffffffffffffffffffffffffff16021790555060008060016101000a81548160ff02191690831515021790555050620002da565b600080fd5b600073ffffffffffffffffffffffffffffffffffffffff82169050919050565b6000620001b38262000186565b9050919050565b6000620001c782620001a6565b9050919050565b620001d981620001ba565b8114620001e557600080fd5b50565b600081519050620001f981620001ce565b92915050565b60006020828403121562000218576200021762000181565b5b60006200022884828501620001e8565b91505092915050565b600082825260208201905092915050565b7f5f65726332305f636f6e74726163745f6164647265737320616464726573732060008201527f63616e206e6f74206265207a65726f0000000000000000000000000000000000602082015250565b6000620002a0602f8362000231565b9150620002ad8262000242565b604082019050919050565b60006020820190508181036000830152620002d38162000291565b9050919050565b61255480620002ea6000396000f3fe6080604052600436106100ec5760003560e01c80639b69279a1161008a578063c311d04911610059578063c311d04914610398578063c565b48b146103c1578063d1484298146103ea578063d6d14171146104135761019b565b80639b69279a146102ee5780639f323d6e14610319578063a4e2d63414610342578063a8f6c9131461036d5761019b565b80633e994942116100c65780633e994942146102325780638b7afe2e1461025b5780638da5cb5b146102865780639aa2e39e146102b15761019b565b806302cc6e3f146101a0578063054a563d146101b757806327e235e3146101f55761019b565b3661019b576000151560008054906101000a900460ff16151514610145576040517f08c379a000000000000000000000000000000000000000000000000000000000815260040161013c9061157e565b60405180910390fd5b61015a3460065461043e90919063ffffffff16565b6006819055507f59062170a285eb80e8c6b8ced60428442a51910635005233fc4ce084a475845e33346040516101919291906115f8565b60405180910390a1005b600080fd5b3480156101ac57600080fd5b506101b5610454565b005b3480156101c357600080fd5b506101de60048036038101906101d99190611683565b6105c9565b6040516101ec9291906116c3565b60405180910390f35b34801561020157600080fd5b5061021c600480360381019061021791906116ec565b61060a565b6040516102299190611719565b60405180910390f35b34801561023e57600080fd5b5061025960048036038101906102549190611772565b610622565b005b34801561026757600080fd5b50610270610887565b60405161027d9190611719565b60405180910390f35b34801561029257600080fd5b5061029b61088d565b6040516102a891906117d3565b60405180910390f35b3480156102bd57600080fd5b506102d860048036038101906102d391906116ec565b6108b3565b6040516102e59190611719565b60405180910390f35b3480156102fa57600080fd5b506103036108cb565b6040516103109190611809565b60405180910390f35b34801561032557600080fd5b50610340600480360381019061033b9190611889565b6108de565b005b34801561034e57600080fd5b50610357610bac565b6040516103649190611809565b60405180910390f35b34801561037957600080fd5b50610382610bbd565b60405161038f919061197d565b60405180910390f35b3480156103a457600080fd5b506103bf60048036038101906103ba9190611998565b610be3565b005b3480156103cd57600080fd5b506103e860048036038101906103e39190611683565b610dc4565b005b3480156103f657600080fd5b50610411600480360381019061040c9190611a1b565b61101f565b005b34801561041f57600080fd5b506104286111dc565b6040516104359190611719565b60405180910390f35b6000818361044c9190611acb565b905092915050565b600060029054906101000a900473ffffffffffffffffffffffffffffffffffffffff1673ffffffffffffffffffffffffffffffffffffffff163373ffffffffffffffffffffffffffffffffffffffff16146104e4576040517f08c379a00000000000000000000000000000000000000000000000000000000081526004016104db90611b71565b60405180910390fd5b60011515600260009054906101000a900460ff1615151461053a576040517f08c379a000000000000000000000000000000000000000000000000000000000815260040161053190611c03565b60405180910390fd5b6000151560008054906101000a900460ff1615151461058e576040517f08c379a00000000000000000000000000000000000000000000000000000000081526004016105859061157e565b60405180910390fd5b6040517f08c379a00000000000000000000000000000000000000000000000000000000081526004016105c090611c6f565b60405180910390fd5b600360205281600052604060002081815481106105e557600080fd5b9060005260206000209060020201600091509150508060000154908060010154905082565b60056020528060005260406000206000915090505481565b600060029054906101000a900473ffffffffffffffffffffffffffffffffffffffff1673ffffffffffffffffffffffffffffffffffffffff163373ffffffffffffffffffffffffffffffffffffffff16146106b2576040517f08c379a00000000000000000000000000000000000000000000000000000000081526004016106a990611b71565b60405180910390fd5b600060019054906101000a900460ff1615610702576040517f08c379a00000000000000000000000000000000000000000000000000000000081526004016106f990611cdb565b60405180910390fd5b6001600060016101000a81548160ff021916908315150217905550600073ffffffffffffffffffffffffffffffffffffffff168273ffffffffffffffffffffffffffffffffffffffff160361078c576040517f08c379a000000000000000000000000000000000000000000000000000000000815260040161078390611d47565b60405180910390fd5b600760009054906101000a900473ffffffffffffffffffffffffffffffffffffffff1673ffffffffffffffffffffffffffffffffffffffff168273ffffffffffffffffffffffffffffffffffffffff160361081c576040517f08c379a000000000000000000000000000000000000000000000000000000000815260040161081390611dff565b60405180910390fd5b610869600060029054906101000a900473ffffffffffffffffffffffffffffffffffffffff16828473ffffffffffffffffffffffffffffffffffffffff166111e29092919063ffffffff16565b60008060016101000a81548160ff0219169083151502179055505050565b60065481565b600060029054906101000a900473ffffffffffffffffffffffffffffffffffffffff1681565b60046020528060005260406000206000915090505481565b600260009054906101000a900460ff1681565b600060029054906101000a900473ffffffffffffffffffffffffffffffffffffffff1673ffffffffffffffffffffffffffffffffffffffff163373ffffffffffffffffffffffffffffffffffffffff161461096e576040517f08c379a000000000000000000000000000000000000000000000000000000000815260040161096590611b71565b60405180910390fd5b6000151560008054906101000a900460ff161515146109c2576040517f08c379a00000000000000000000000000000000000000000000000000000000081526004016109b99061157e565b60405180910390fd5b600073ffffffffffffffffffffffffffffffffffffffff168573ffffffffffffffffffffffffffffffffffffffff1603610a31576040517f08c379a0000000000000000000000000000000000000000000000000000000008152600401610a2890611e91565b60405180910390fd5b818190508484905014610a79576040517f08c379a0000000000000000000000000000000000000000000000000000000008152600401610a7090611f23565b60405180910390fd5b60005b84849050811015610ba4576000858583818110610a9c57610a9b611f43565b5b9050602002013590506000848484818110610aba57610ab9611f43565b5b905060200201359050600360008973ffffffffffffffffffffffffffffffffffffffff1673ffffffffffffffffffffffffffffffffffffffff1681526020019081526020016000206040518060400160405280838152602001848152509080600181540180825580915050600190039060005260206000209060020201600090919091909150600082015181600001556020820151816001015550507fcad22dd3bcdad18c651a372fe3e7e893af3d354482d9ac6c310c8342eb7af5748882604051610b879291906115f8565b60405180910390a150508080610b9c90611f72565b915050610a7c565b505050505050565b60008054906101000a900460ff1681565b600760009054906101000a900473ffffffffffffffffffffffffffffffffffffffff1681565b600060029054906101000a900473ffffffffffffffffffffffffffffffffffffffff1673ffffffffffffffffffffffffffffffffffffffff163373ffffffffffffffffffffffffffffffffffffffff1614610c73576040517f08c379a0000000000000000000000000000000000000000000000000000000008152600401610c6a90611b71565b60405180910390fd5b600060019054906101000a900460ff1615610cc3576040517f08c379a0000000000000000000000000000000000000000000000000000000008152600401610cba90611cdb565b60405180910390fd5b6001600060016101000a81548160ff021916908315150217905550600654811115610d23576040517f08c379a0000000000000000000000000000000000000000000000000000000008152600401610d1a90612006565b60405180910390fd5b610d388160065461126890919063ffffffff16565b600681905550600060029054906101000a900473ffffffffffffffffffffffffffffffffffffffff1673ffffffffffffffffffffffffffffffffffffffff166108fc829081150290604051600060405180830381858888f19350505050158015610da6573d6000803e3d6000fd5b5060008060016101000a81548160ff02191690831515021790555050565b60011515600260009054906101000a900460ff16151514610e1a576040517f08c379a0000000000000000000000000000000000000000000000000000000008152600401610e1190611c03565b60405180910390fd5b600060019054906101000a900460ff1615610e6a576040517f08c379a0000000000000000000000000000000000000000000000000000000008152600401610e6190611cdb565b60405180910390fd5b6001600060016101000a81548160ff021916908315150217905550600073ffffffffffffffffffffffffffffffffffffffff168273ffffffffffffffffffffffffffffffffffffffff1603610ef4576040517f08c379a0000000000000000000000000000000000000000000000000000000008152600401610eeb90611e91565b60405180910390fd5b80600560008473ffffffffffffffffffffffffffffffffffffffff1673ffffffffffffffffffffffffffffffffffffffff168152602001908152602001600020541015610f76576040517f08c379a0000000000000000000000000000000000000000000000000000000008152600401610f6d90612098565b60405180910390fd5b8173ffffffffffffffffffffffffffffffffffffffff163373ffffffffffffffffffffffffffffffffffffffff1614610fe4576040517f08c379a0000000000000000000000000000000000000000000000000000000008152600401610fdb9061212a565b60405180910390fd5b6040517f08c379a000000000000000000000000000000000000000000000000000000000815260040161101690611c6f565b60405180910390fd5b600060029054906101000a900473ffffffffffffffffffffffffffffffffffffffff1673ffffffffffffffffffffffffffffffffffffffff163373ffffffffffffffffffffffffffffffffffffffff16146110af576040517f08c379a00000000000000000000000000000000000000000000000000000000081526004016110a690611b71565b60405180910390fd5b60011515600260009054906101000a900460ff16151514611105576040517f08c379a00000000000000000000000000000000000000000000000000000000081526004016110fc90611c03565b60405180910390fd5b6000151560008054906101000a900460ff16151514611159576040517f08c379a00000000000000000000000000000000000000000000000000000000081526004016111509061157e565b60405180910390fd5b8181905084849050146111a1576040517f08c379a0000000000000000000000000000000000000000000000000000000008152600401611198906121e2565b60405180910390fd5b6040517f08c379a00000000000000000000000000000000000000000000000000000000081526004016111d390611c6f565b60405180910390fd5b60015481565b6112638363a9059cbb60e01b84846040516024016112019291906115f8565b604051602081830303815290604052907bffffffffffffffffffffffffffffffffffffffffffffffffffffffff19166020820180517bffffffffffffffffffffffffffffffffffffffffffffffffffffffff838183161783525050505061127e565b505050565b600081836112769190612202565b905092915050565b60006112e0826040518060400160405280602081526020017f5361666545524332303a206c6f772d6c6576656c2063616c6c206661696c65648152508573ffffffffffffffffffffffffffffffffffffffff166113459092919063ffffffff16565b905060008151111561134057808060200190518101906113009190612262565b61133f576040517f08c379a000000000000000000000000000000000000000000000000000000000815260040161133690612301565b60405180910390fd5b5b505050565b6060611354848460008561135d565b90509392505050565b6060824710156113a2576040517f08c379a000000000000000000000000000000000000000000000000000000000815260040161139990612393565b60405180910390fd5b6113ab85611471565b6113ea576040517f08c379a00000000000000000000000000000000000000000000000000000000081526004016113e1906123ff565b60405180910390fd5b6000808673ffffffffffffffffffffffffffffffffffffffff1685876040516114139190612490565b60006040518083038185875af1925050503d8060008114611450576040519150601f19603f3d011682016040523d82523d6000602084013e611455565b606091505b5091509150611465828286611494565b92505050949350505050565b6000808273ffffffffffffffffffffffffffffffffffffffff163b119050919050565b606083156114a4578290506114f4565b6000835111156114b75782518084602001fd5b816040517f08c379a00000000000000000000000000000000000000000000000000000000081526004016114eb91906124fc565b60405180910390fd5b9392505050565b600082825260208201905092915050565b7f496e636f6d696e67206465706f736974732068617665206265656e2066696e6160008201527f6c697365642e0000000000000000000000000000000000000000000000000000602082015250565b60006115686026836114fb565b91506115738261150c565b604082019050919050565b600060208201905081810360008301526115978161155b565b9050919050565b600073ffffffffffffffffffffffffffffffffffffffff82169050919050565b60006115c98261159e565b9050919050565b6115d9816115be565b82525050565b6000819050919050565b6115f2816115df565b82525050565b600060408201905061160d60008301856115d0565b61161a60208301846115e9565b9392505050565b600080fd5b600080fd5b611634816115be565b811461163f57600080fd5b50565b6000813590506116518161162b565b92915050565b611660816115df565b811461166b57600080fd5b50565b60008135905061167d81611657565b92915050565b6000806040838503121561169a57611699611621565b5b60006116a885828601611642565b92505060206116b98582860161166e565b9150509250929050565b60006040820190506116d860008301856115e9565b6116e560208301846115e9565b9392505050565b60006020828403121561170257611701611621565b5b600061171084828501611642565b91505092915050565b600060208201905061172e60008301846115e9565b92915050565b600061173f826115be565b9050919050565b61174f81611734565b811461175a57600080fd5b50565b60008135905061176c81611746565b92915050565b6000806040838503121561178957611788611621565b5b60006117978582860161175d565b92505060206117a88582860161166e565b9150509250929050565b60006117bd8261159e565b9050919050565b6117cd816117b2565b82525050565b60006020820190506117e860008301846117c4565b92915050565b60008115159050919050565b611803816117ee565b82525050565b600060208201905061181e60008301846117fa565b92915050565b600080fd5b600080fd5b600080fd5b60008083601f84011261184957611848611824565b5b8235905067ffffffffffffffff81111561186657611865611829565b5b6020830191508360208202830111156118825761188161182e565b5b9250929050565b6000806000806000606086880312156118a5576118a4611621565b5b60006118b388828901611642565b955050602086013567ffffffffffffffff8111156118d4576118d3611626565b5b6118e088828901611833565b9450945050604086013567ffffffffffffffff81111561190357611902611626565b5b61190f88828901611833565b92509250509295509295909350565b6000819050919050565b600061194361193e6119398461159e565b61191e565b61159e565b9050919050565b600061195582611928565b9050919050565b60006119678261194a565b9050919050565b6119778161195c565b82525050565b6000602082019050611992600083018461196e565b92915050565b6000602082840312156119ae576119ad611621565b5b60006119bc8482850161166e565b91505092915050565b60008083601f8401126119db576119da611824565b5b8235905067ffffffffffffffff8111156119f8576119f7611829565b5b602083019150836020820283011115611a1457611a1361182e565b5b9250929050565b60008060008060408587031215611a3557611a34611621565b5b600085013567ffffffffffffffff811115611a5357611a52611626565b5b611a5f878288016119c5565b9450945050602085013567ffffffffffffffff811115611a8257611a81611626565b5b611a8e87828801611833565b925092505092959194509250565b7f4e487b7100000000000000000000000000000000000000000000000000000000600052601160045260246000fd5b6000611ad6826115df565b9150611ae1836115df565b9250828201905080821115611af957611af8611a9c565b5b92915050565b7f4d6573736167652073656e646572206d7573742062652074686520636f6e747260008201527f6163742773206f776e65722e0000000000000000000000000000000000000000602082015250565b6000611b5b602c836114fb565b9150611b6682611aff565b604082019050919050565b60006020820190508181036000830152611b8a81611b4e565b9050919050565b7f506c6561736520736574207468652074696d65207374616d702066697273742c60008201527f207468656e2074727920616761696e2e00000000000000000000000000000000602082015250565b6000611bed6030836114fb565b9150611bf882611b91565b604082019050919050565b60006020820190508181036000830152611c1c81611be0565b9050919050565b7f544f444f00000000000000000000000000000000000000000000000000000000600082015250565b6000611c596004836114fb565b9150611c6482611c23565b602082019050919050565b60006020820190508181036000830152611c8881611c4c565b9050919050565b7f4e6f2072652d656e7472616e6379000000000000000000000000000000000000600082015250565b6000611cc5600e836114fb565b9150611cd082611c8f565b602082019050919050565b60006020820190508181036000830152611cf481611cb8565b9050919050565b7f546f6b656e20616464726573732063616e206e6f74206265207a65726f2e0000600082015250565b6000611d31601e836114fb565b9150611d3c82611cfb565b602082019050919050565b60006020820190508181036000830152611d6081611d24565b9050919050565b7f4f6e6c7920746f6b656e207768696368206973206e6f74206c6f636b6564206260008201527f79207468697320636f6e74726163742063616e206265207472616e736665726560208201527f642e000000000000000000000000000000000000000000000000000000000000604082015250565b6000611de96042836114fb565b9150611df482611d67565b606082019050919050565b60006020820190508181036000830152611e1881611ddc565b9050919050565b7f45524332303a207472616e7366657220746f20746865207a65726f206164647260008201527f6573730000000000000000000000000000000000000000000000000000000000602082015250565b6000611e7b6023836114fb565b9150611e8682611e1f565b604082019050919050565b60006020820190508181036000830152611eaa81611e6e565b9050919050565b7f54686520756e6c6f636b54696d657374616d707320616e6420616d6f756e747360008201527f206d757374206265207468652073616d652073697a652e000000000000000000602082015250565b6000611f0d6037836114fb565b9150611f1882611eb1565b604082019050919050565b60006020820190508181036000830152611f3c81611f00565b9050919050565b7f4e487b7100000000000000000000000000000000000000000000000000000000600052603260045260246000fd5b6000611f7d826115df565b91507fffffffffffffffffffffffffffffffffffffffffffffffffffffffffffffffff8203611faf57611fae611a9c565b5b600182019050919050565b7f496e73756666696369656e742066756e64730000000000000000000000000000600082015250565b6000611ff06012836114fb565b9150611ffb82611fba565b602082019050919050565b6000602082019050818103600083015261201f81611fe3565b9050919050565b7f496e73756666696369656e7420746f6b656e2062616c616e63652c207472792060008201527f6c657373657220616d6f756e7400000000000000000000000000000000000000602082015250565b6000612082602d836114fb565b915061208d82612026565b604082019050919050565b600060208201905081810360008301526120b181612075565b9050919050565b7f4f6e6c792074686520746f6b656e20726563697069656e742063616e2070657260008201527f666f726d2074686520756e6c6f636b0000000000000000000000000000000000602082015250565b6000612114602f836114fb565b915061211f826120b8565b604082019050919050565b6000602082019050818103600083015261214381612107565b9050919050565b7f54686520726563697069656e747320616e6420616d6f756e747320617272617960008201527f73206d757374206265207468652073616d652073697a6520696e206c656e677460208201527f6800000000000000000000000000000000000000000000000000000000000000604082015250565b60006121cc6041836114fb565b91506121d78261214a565b606082019050919050565b600060208201905081810360008301526121fb816121bf565b9050919050565b600061220d826115df565b9150612218836115df565b92508282039050818111156122305761222f611a9c565b5b92915050565b61223f816117ee565b811461224a57600080fd5b50565b60008151905061225c81612236565b92915050565b60006020828403121561227857612277611621565b5b60006122868482850161224d565b91505092915050565b7f5361666545524332303a204552433230206f7065726174696f6e20646964206e60008201527f6f74207375636365656400000000000000000000000000000000000000000000602082015250565b60006122eb602a836114fb565b91506122f68261228f565b604082019050919050565b6000602082019050818103600083015261231a816122de565b9050919050565b7f416464726573733a20696e73756666696369656e742062616c616e636520666f60008201527f722063616c6c0000000000000000000000000000000000000000000000000000602082015250565b600061237d6026836114fb565b915061238882612321565b604082019050919050565b600060208201905081810360008301526123ac81612370565b9050919050565b7f416464726573733a2063616c6c20746f206e6f6e2d636f6e7472616374000000600082015250565b60006123e9601d836114fb565b91506123f4826123b3565b602082019050919050565b60006020820190508181036000830152612418816123dc565b9050919050565b600081519050919050565b600081905092915050565b60005b83811015612453578082015181840152602081019050612438565b60008484015250505050565b600061246a8261241f565b612474818561242a565b9350612484818560208601612435565b80840191505092915050565b600061249c828461245f565b915081905092915050565b600081519050919050565b6000601f19601f8301169050919050565b60006124ce826124a7565b6124d881856114fb565b93506124e8818560208601612435565b6124f1816124b2565b840191505092915050565b6000602082019050818103600083015261251681846124c3565b90509291505056fea264697066735822122050c2916cc3c3075bb67881702db8fdbdad8f4386acb8d498e895f1366690624964736f6c63430008100033",
  "immutableReferences": {},
  "source": "// SPDX-License-Identifier: MIT\npragma solidity 0.8.16;\n\nimport \"@openzeppelin/contracts/token/ERC20/utils/SafeERC20.sol\";\n\nimport \"openzeppelin-solidity/contracts/utils/math/SafeMath.sol\";\n\ncontract TokenLockPlan {\n\n    struct LockPlan {\n        uint256 amount;\n        uint256 unlockTimestamp;\n    }\n\n    // Flags\n    bool public isLocked;\n    bool internal reentrancyFlag;   // boolean to prevent reentrancy\n\n    // Library usage\n    using SafeERC20 for IERC20;\n    using SafeMath for uint256;\n\n    // Contract owner\n    address payable public owner;\n\n    // Timestamp related variables\n    uint256 public initialTimestamp;    // The time locking started\n    bool public timestampSet;\n\n    // Token amount variables\n    mapping(address => LockPlan[]) public lockPlans;\n    mapping(address => uint256) public alreadyWithdrawn;\n    mapping(address => uint256) public balances;\n    uint256 public contractBalance;\n\n    // ERC20 contract address\n    IERC20 public erc20Contract;\n\n    // Events\n    event TokensDeposited(address from, uint256 amount);\n    event AllocationPerformed(address recipient, uint256 amount);\n    event TokensUnlocked(address recipient, uint256 amount);\n\n    /// @dev Deploys contract and links the ERC20 token which we are timelocking, also sets owner as msg.sender and sets timestampSet bool to false.\n    /// @param _erc20_contract_address.\n    constructor(IERC20 _erc20_contract_address) {\n        // Allow this contract's owner to make deposits by setting allIncomingDepositsFinalised to false\n        isLocked = false;\n\n        // Set contract owner\n        owner = payable(msg.sender);\n\n        // Timestamp values not set yet\n        timestampSet = false;\n\n        // Set the erc20 contract address which this timelock is deliberately paired to\n        require(address(_erc20_contract_address) != address(0), \"_erc20_contract_address address can not be zero\");\n        erc20Contract = _erc20_contract_address;\n\n        // Initialize the reentrancy variable to not locked\n        reentrancyFlag = false;\n    }\n\n    // Modifier\n    /**\n     * @dev Prevents reentrancy\n     */\n    modifier noReentrant() {\n        require(!reentrancyFlag, \"No re-entrancy\");\n        reentrancyFlag = true;\n        _;\n        reentrancyFlag = false;\n    }\n\n    // Modifier\n    /**\n     * @dev Throws if allIncomingDepositsFinalised is true.\n     */\n    modifier notLocked() {\n        require(isLocked == false, \"Incoming deposits have been finalised.\");\n        _;\n    }\n\n    // Modifier\n    /**\n     * @dev Throws if called by any account other than the owner.\n     */\n    modifier onlyOwner() {\n        require(msg.sender == owner, \"Message sender must be the contract's owner.\");\n        _;\n    }\n\n    // Modifier\n    /**\n     * @dev Throws if timestamp already set.\n     */\n    modifier timestampNotSet() {\n        require(timestampSet == false, \"The time stamp has already been set.\");\n        _;\n    }\n\n    // Modifier\n    /**\n     * @dev Throws if timestamp not set.\n     */\n    modifier timestampIsSet() {\n        require(timestampSet == true, \"Please set the time stamp first, then try again.\");\n        _;\n    }\n\n    receive() payable external notLocked {\n        contractBalance = contractBalance.add(msg.value);\n        emit TokensDeposited(msg.sender, msg.value);\n    }\n\n    /// @dev Takes away any ability (for the contract owner) to assign any tokens to any recipients. \n    /// This function is only to be called by the contract owner. \n    /// Calling this function can not be undone. \n    /// Calling this function must only be performed when all of the addresses and amounts are allocated (to the recipients). \n    /// This function finalizes the contract owners involvement and at this point the contract's timelock functionality is non-custodial\n    function finalizeAllIncomingDeposits() public onlyOwner timestampIsSet notLocked {\n        // Check contract balance is equal to all locked token amount.\n        revert(\"TODO\");\n\n        // Record locking start time\n        initialTimestamp = block.timestamp;\n\n        // Make owner cannot access anymore\n        isLocked = true;\n    }\n\n    /// @dev Function to withdraw Eth in case Eth is accidently sent to this contract.\n    /// @param amount of network tokens to withdraw (in wei).\n    function withdrawEth(uint256 amount) public onlyOwner noReentrant{\n        require(amount <= contractBalance, \"Insufficient funds\");\n        contractBalance = contractBalance.sub(amount);\n\n        // Transfer the specified amount of Eth to the owner of this contract\n        owner.transfer(amount);\n    }\n\n    /// @dev Allows the contract owner to allocate official ERC20 tokens to each future recipient (only one at a time).\n    /// @param recipient, address of recipient.\n    /// @param unlockTimestamps, timestamp when token is unlocked\n    /// @param amounts, amount of locking token\n    function addLockPlan(address recipient, uint256[] calldata unlockTimestamps, uint256[] calldata amounts) public onlyOwner notLocked {\n        require(recipient != address(0), \"ERC20: transfer to the zero address\");\n        require(unlockTimestamps.length == amounts.length, \"The unlockTimestamps and amounts must be the same size.\");\n        \n        for(uint256 i = 0; i < unlockTimestamps.length; i++)\n        {\n            uint256 unlockTimestamp = unlockTimestamps[i];\n            uint256 amount = amounts[i];\n            lockPlans[recipient].push(\n                LockPlan(\n                    amount,\n                    unlockTimestamp\n                )\n            );\n\n            emit AllocationPerformed(recipient, amount);\n        }\n    }\n\n    /// @dev Allows the contract owner to allocate official ERC20 tokens to multiple future recipient in bulk.\n    /// @param recipients, an array of addresses of the many recipient.\n    /// @param amounts to allocate to each of the many recipient.\n    function bulkDepositTokens(address[] calldata recipients, uint256[] calldata amounts) external onlyOwner timestampIsSet notLocked {\n        require(recipients.length == amounts.length, \"The recipients and amounts arrays must be the same size in length\");\n        \n        revert(\"TODO\");\n        // for(uint256 i = 0; i < recipients.length; i++) {\n        //     require(recipients[i] != address(0), \"ERC20: transfer to the zero address\");\n        //     balances[recipients[i]] = balances[recipients[i]].add(amounts[i]);\n        //     emit AllocationPerformed(recipients[i], amounts[i]);\n        // }\n    }\n\n    /// @dev Allows recipient to unlock tokens after 24 month period has elapsed\n    /// @param to - the recipient's account address.\n    /// @param amount - the amount to unlock (in wei)\n    function transferTimeLockedTokensAfterTimePeriod(address to, uint256 amount) public timestampIsSet noReentrant {\n        // Validate\n        require(to != address(0), \"ERC20: transfer to the zero address\");\n        require(balances[to] >= amount, \"Insufficient token balance, try lesser amount\");\n        require(msg.sender == to, \"Only the token recipient can perform the unlock\");\n\n        revert(\"TODO\");\n        // if (block.timestamp >= timePeriod) {\n        //     alreadyWithdrawn[to] = alreadyWithdrawn[to].add(amount);\n        //     balances[to] = balances[to].sub(amount);\n        //     erc20Contract.safeTransfer(to, amount);\n        //     emit TokensUnlocked(to, amount);\n        // } else {\n        //     revert(\"Tokens are only available after correct time period has elapsed\");\n        // }\n    }\n\n    /// @dev Transfer accidentally locked ERC20 tokens.\n    /// @param token - ERC20 token address.\n    /// @param amount of ERC20 tokens to remove.\n    function transferAccidentallyLockedTokens(IERC20 token, uint256 amount) public onlyOwner noReentrant {\n        // Validate\n        require(address(token) != address(0), \"Token address can not be zero.\");\n        require(token != erc20Contract, \"Only token which is not locked by this contract can be transfered.\");\n        \n        token.safeTransfer(owner, amount);\n    }\n}",
  "sourcePath": "/Users/kyungyoonkim/blockchain/MultiTimeLock/contracts/TokenLockPlan.sol",
  "compiler": {
    "name": "solc",
    "version": "0.8.16+commit.07a7930e.Emscripten.clang"
  },
  "schemaVersion": "3.4.8",
  "updatedAt": "2022-08-17T05:57:40.101Z",
  "networkType": "ethereum",
  "devdoc": {
    "kind": "dev",
    "methods": {
      "addLockPlan(address,uint256[],uint256[])": {
        "details": "Allows the contract owner to allocate official ERC20 tokens to each future recipient (only one at a time).",
        "params": {
          "amounts": ", amount of locking token",
          "recipient": ", address of recipient.",
          "unlockTimestamps": ", timestamp when token is unlocked"
        }
      },
      "bulkDepositTokens(address[],uint256[])": {
        "details": "Allows the contract owner to allocate official ERC20 tokens to multiple future recipient in bulk.",
        "params": {
          "amounts": "to allocate to each of the many recipient.",
          "recipients": ", an array of addresses of the many recipient."
        }
      },
      "constructor": {
        "details": "Deploys contract and links the ERC20 token which we are timelocking, also sets owner as msg.sender and sets timestampSet bool to false.",
        "params": {
          "_erc20_contract_address": "."
        }
      },
      "finalizeAllIncomingDeposits()": {
        "details": "Takes away any ability (for the contract owner) to assign any tokens to any recipients.  This function is only to be called by the contract owner.  Calling this function can not be undone.  Calling this function must only be performed when all of the addresses and amounts are allocated (to the recipients).  This function finalizes the contract owners involvement and at this point the contract's timelock functionality is non-custodial"
      },
      "transferAccidentallyLockedTokens(address,uint256)": {
        "details": "Transfer accidentally locked ERC20 tokens.",
        "params": {
          "amount": "of ERC20 tokens to remove.",
          "token": "- ERC20 token address."
        }
      },
      "transferTimeLockedTokensAfterTimePeriod(address,uint256)": {
        "details": "Allows recipient to unlock tokens after 24 month period has elapsed",
        "params": {
          "amount": "- the amount to unlock (in wei)",
          "to": "- the recipient's account address."
        }
      },
      "withdrawEth(uint256)": {
        "details": "Function to withdraw Eth in case Eth is accidently sent to this contract.",
        "params": {
          "amount": "of network tokens to withdraw (in wei)."
        }
      }
    },
    "version": 1
  },
  "userdoc": {
    "kind": "user",
    "methods": {},
    "version": 1
  }
}