{
  "contractName": "TokenLockPlan",
  "abi": [
    {
      "inputs": [
        {
          "internalType": "contract IERC20",
          "name": "_erc20_contract_address",
          "type": "address"
        }
      ],
      "stateMutability": "nonpayable",
      "type": "constructor"
    },
    {
      "anonymous": false,
      "inputs": [
        {
          "indexed": false,
          "internalType": "address",
          "name": "from",
          "type": "address"
        },
        {
          "indexed": false,
          "internalType": "uint256",
          "name": "amount",
          "type": "uint256"
        }
      ],
      "name": "EthDeposited",
      "type": "event"
    },
    {
      "anonymous": false,
      "inputs": [
        {
          "indexed": true,
          "internalType": "address",
          "name": "previousOwner",
          "type": "address"
        },
        {
          "indexed": true,
          "internalType": "address",
          "name": "newOwner",
          "type": "address"
        }
      ],
      "name": "OwnershipTransferred",
      "type": "event"
    },
    {
      "anonymous": false,
      "inputs": [
        {
          "indexed": false,
          "internalType": "address",
          "name": "recipient",
          "type": "address"
        },
        {
          "indexed": false,
          "internalType": "uint256",
          "name": "amount",
          "type": "uint256"
        }
      ],
      "name": "TokensLocked",
      "type": "event"
    },
    {
      "anonymous": false,
      "inputs": [
        {
          "indexed": false,
          "internalType": "address",
          "name": "recipient",
          "type": "address"
        },
        {
          "indexed": false,
          "internalType": "uint256",
          "name": "amount",
          "type": "uint256"
        }
      ],
      "name": "TokensWithdrawed",
      "type": "event"
    },
    {
      "inputs": [
        {
          "internalType": "address",
          "name": "",
          "type": "address"
        }
      ],
      "name": "alreadyWithdrawn",
      "outputs": [
        {
          "internalType": "uint256",
          "name": "",
          "type": "uint256"
        }
      ],
      "stateMutability": "view",
      "type": "function"
    },
    {
      "inputs": [
        {
          "internalType": "address",
          "name": "",
          "type": "address"
        }
      ],
      "name": "balances",
      "outputs": [
        {
          "internalType": "uint256",
          "name": "",
          "type": "uint256"
        }
      ],
      "stateMutability": "view",
      "type": "function"
    },
    {
      "inputs": [],
      "name": "contractEthBalance",
      "outputs": [
        {
          "internalType": "uint256",
          "name": "",
          "type": "uint256"
        }
      ],
      "stateMutability": "view",
      "type": "function"
    },
    {
      "inputs": [],
      "name": "erc20Contract",
      "outputs": [
        {
          "internalType": "contract IERC20",
          "name": "",
          "type": "address"
        }
      ],
      "stateMutability": "view",
      "type": "function"
    },
    {
      "inputs": [],
      "name": "isLocked",
      "outputs": [
        {
          "internalType": "bool",
          "name": "",
          "type": "bool"
        }
      ],
      "stateMutability": "view",
      "type": "function"
    },
    {
      "inputs": [
        {
          "internalType": "address",
          "name": "",
          "type": "address"
        },
        {
          "internalType": "uint256",
          "name": "",
          "type": "uint256"
        }
      ],
      "name": "lockPlans",
      "outputs": [
        {
          "internalType": "uint256",
          "name": "amount",
          "type": "uint256"
        },
        {
          "internalType": "uint256",
          "name": "unlockAfterSecs",
          "type": "uint256"
        }
      ],
      "stateMutability": "view",
      "type": "function"
    },
    {
      "inputs": [],
      "name": "lockStartTimestamp",
      "outputs": [
        {
          "internalType": "uint256",
          "name": "",
          "type": "uint256"
        }
      ],
      "stateMutability": "view",
      "type": "function"
    },
    {
      "inputs": [],
      "name": "owner",
      "outputs": [
        {
          "internalType": "address",
          "name": "",
          "type": "address"
        }
      ],
      "stateMutability": "view",
      "type": "function"
    },
    {
      "inputs": [],
      "name": "renounceOwnership",
      "outputs": [],
      "stateMutability": "nonpayable",
      "type": "function"
    },
    {
      "inputs": [],
      "name": "totalBalance",
      "outputs": [
        {
          "internalType": "uint256",
          "name": "",
          "type": "uint256"
        }
      ],
      "stateMutability": "view",
      "type": "function"
    },
    {
      "inputs": [
        {
          "internalType": "address",
          "name": "newOwner",
          "type": "address"
        }
      ],
      "name": "transferOwnership",
      "outputs": [],
      "stateMutability": "nonpayable",
      "type": "function"
    },
    {
      "stateMutability": "payable",
      "type": "receive"
    },
    {
      "inputs": [],
      "name": "lockup",
      "outputs": [],
      "stateMutability": "nonpayable",
      "type": "function"
    },
    {
      "inputs": [
        {
          "internalType": "address",
          "name": "recipient",
          "type": "address"
        },
        {
          "internalType": "uint256[]",
          "name": "unlockAfterSecs",
          "type": "uint256[]"
        },
        {
          "internalType": "uint256[]",
          "name": "lockAmounts",
          "type": "uint256[]"
        }
      ],
      "name": "setLockPlan",
      "outputs": [],
      "stateMutability": "nonpayable",
      "type": "function"
    },
    {
      "inputs": [
        {
          "internalType": "address[]",
          "name": "recipients",
          "type": "address[]"
        },
        {
          "internalType": "uint256[][]",
          "name": "unlockAfterSecss",
          "type": "uint256[][]"
        },
        {
          "internalType": "uint256[][]",
          "name": "lockAmountss",
          "type": "uint256[][]"
        }
      ],
      "name": "bulkSetLockPlan",
      "outputs": [],
      "stateMutability": "nonpayable",
      "type": "function"
    },
    {
      "inputs": [
        {
          "internalType": "address",
          "name": "recipient",
          "type": "address"
        }
      ],
      "name": "lockPlanLength",
      "outputs": [
        {
          "internalType": "uint256",
          "name": "",
          "type": "uint256"
        }
      ],
      "stateMutability": "view",
      "type": "function"
    },
    {
      "inputs": [],
      "name": "myUnlockedTokenBalance",
      "outputs": [
        {
          "internalType": "uint256",
          "name": "",
          "type": "uint256"
        }
      ],
      "stateMutability": "view",
      "type": "function"
    },
    {
      "inputs": [
        {
          "internalType": "address",
          "name": "recipient",
          "type": "address"
        }
      ],
      "name": "userUnlockedTokenBalance",
      "outputs": [
        {
          "internalType": "uint256",
          "name": "",
          "type": "uint256"
        }
      ],
      "stateMutability": "view",
      "type": "function"
    },
    {
      "inputs": [
        {
          "internalType": "uint256",
          "name": "withdrawAmount",
          "type": "uint256"
        }
      ],
      "name": "withdrawMyUnlockedToken",
      "outputs": [],
      "stateMutability": "nonpayable",
      "type": "function"
    },
    {
      "inputs": [
        {
          "internalType": "address",
          "name": "recipient",
          "type": "address"
        },
        {
          "internalType": "uint256",
          "name": "withdrawAmount",
          "type": "uint256"
        }
      ],
      "name": "withdrawUserUnlockedToken",
      "outputs": [],
      "stateMutability": "nonpayable",
      "type": "function"
    },
    {
      "inputs": [],
      "name": "withdrawAllUserUnlockedToken",
      "outputs": [],
      "stateMutability": "nonpayable",
      "type": "function"
    },
    {
      "inputs": [],
      "name": "depositedEthBalance",
      "outputs": [
        {
          "internalType": "uint256",
          "name": "",
          "type": "uint256"
        }
      ],
      "stateMutability": "view",
      "type": "function"
    },
    {
      "inputs": [
        {
          "internalType": "uint256",
          "name": "amount",
          "type": "uint256"
        }
      ],
      "name": "transferDepositedTokensToOnwer",
      "outputs": [],
      "stateMutability": "nonpayable",
      "type": "function"
    },
    {
      "inputs": [
        {
          "internalType": "uint256",
          "name": "amount",
          "type": "uint256"
        }
      ],
      "name": "transferAccidentallyDepositedTokensToOnwer",
      "outputs": [],
      "stateMutability": "nonpayable",
      "type": "function"
    },
    {
      "inputs": [
        {
          "internalType": "contract IERC20",
          "name": "token",
          "type": "address"
        },
        {
          "internalType": "uint256",
          "name": "amount",
          "type": "uint256"
        }
      ],
      "name": "transferAccidentallyDepositedOtherTokensToOnwer",
      "outputs": [],
      "stateMutability": "nonpayable",
      "type": "function"
    },
    {
      "inputs": [
        {
          "internalType": "uint256",
          "name": "amount",
          "type": "uint256"
        }
      ],
      "name": "transferAccidentallyDepositedEthToOnwer",
      "outputs": [],
      "stateMutability": "nonpayable",
      "type": "function"
    }
  ],
  "bytecode": "0x60806040523480156200001157600080fd5b5060405162001ef738038062001ef78339810160408190526200003491620000c9565b6001600055620000443362000077565b6001805460ff60a01b19169055600a80546001600160a01b0319166001600160a01b0392909216919091179055620000fb565b600180546001600160a01b038381166001600160a01b0319831681179093556040519116919082907f8be0079c531659141344cd1fd0a4f28419497f9722a3daafe3b4186f6b6457e090600090a35050565b600060208284031215620000dc57600080fd5b81516001600160a01b0381168114620000f457600080fd5b9392505050565b611dec806200010b6000396000f3fe60806040526004361061016a5760003560e01c80635d58ce36116100d15780639aa2e39e1161008a578063ad7a672f11610064578063ad7a672f146104ad578063d0b1a9c3146104c3578063d8c0681e146104e3578063f2fde38b1461050357600080fd5b80639aa2e39e1461042f578063a4e2d6341461045c578063a8f6c9131461048d57600080fd5b80635d58ce361461037d57806365809fc314610393578063715018a6146103b35780637baf74d3146103c85780638da5cb5b146103dd578063917853991461040f57600080fd5b806324217e511161012357806324217e51146102b057806327e235e3146102d05780632f3dc915146102fd5780633fe3afa31461031d578063457fa0de1461033d5780634aa1ba5b1461035d57600080fd5b8063054a563d146101f157806306490f471461022b57806307245e2914610242578063181f57421461026657806320423f751461027b57806321e59a4c1461029b57600080fd5b366101ec57600154600160a01b900460ff16156101a25760405162461bcd60e51b81526004016101999061193f565b60405180910390fd5b6008546101af9034610523565b600855604080513381523460208201527f66ff7c8f71ccc7c36152a41920d0d3b46ef3034359f76aa1498ed4478c204b5c910160405180910390a1005b600080fd5b3480156101fd57600080fd5b5061021161020c36600461198b565b610538565b604080519283526020830191909152015b60405180910390f35b34801561023757600080fd5b50610240610574565b005b34801561024e57600080fd5b5061025860095481565b604051908152602001610222565b34801561027257600080fd5b50600854610258565b34801561028757600080fd5b506102586102963660046119b7565b6106b6565b3480156102a757600080fd5b506102586106fa565b3480156102bc57600080fd5b506102406102cb36600461198b565b61070a565b3480156102dc57600080fd5b506102586102eb3660046119b7565b60056020526000908152604090205481565b34801561030957600080fd5b50610240610318366004611a20565b61074d565b34801561032957600080fd5b50610240610338366004611aba565b6108b4565b34801561034957600080fd5b506102586103583660046119b7565b6108ee565b34801561036957600080fd5b5061024061037836600461198b565b610901565b34801561038957600080fd5b5061025860085481565b34801561039f57600080fd5b506102406103ae366004611aba565b6109d9565b3480156103bf57600080fd5b50610240610a62565b3480156103d457600080fd5b50610240610a76565b3480156103e957600080fd5b506001546001600160a01b03165b6040516001600160a01b039091168152602001610222565b34801561041b57600080fd5b5061024061042a366004611aba565b610b28565b34801561043b57600080fd5b5061025861044a3660046119b7565b60066020526000908152604090205481565b34801561046857600080fd5b5060015461047d90600160a01b900460ff1681565b6040519015158152602001610222565b34801561049957600080fd5b50600a546103f7906001600160a01b031681565b3480156104b957600080fd5b5061025860075481565b3480156104cf57600080fd5b506102406104de366004611ad3565b610bc3565b3480156104ef57600080fd5b506102406104fe366004611aba565b610e5b565b34801561050f57600080fd5b5061024061051e3660046119b7565b61101b565b600061052f8284611b6c565b90505b92915050565b6002602052816000526040600020818154811061055457600080fd5b600091825260209091206002909102018054600190910154909250905082565b61057c611091565b600154600160a01b900460ff16156105a65760405162461bcd60e51b81526004016101999061193f565b600754600a546040516370a0823160e01b81523060048201526001600160a01b03909116906370a0823190602401602060405180830381865afa1580156105f1573d6000803e3d6000fd5b505050506040513d601f19601f820116820180604052508101906106159190611b7f565b101561069d5760405162461bcd60e51b815260206004820152604b60248201527f546f6b656e4c6f636b506c616e3a204465706f697374656420636f6e7472616360448201527f742062616c616e6365206973206c657373207468616e20746f74616c206c6f6360648201526a1ada5b99c8185b5bdd5b9d60aa1b608482015260a401610199565b426009556001805460ff60a01b1916600160a01b179055565b60006001600160a01b0382166106de5760405162461bcd60e51b815260040161019990611b98565b506001600160a01b031660009081526002602052604090205490565b6000610705336110eb565b905090565b610712611091565b60018054600160a01b900460ff1615151461073f5760405162461bcd60e51b815260040161019990611be4565b6107498282611218565b5050565b610755611091565b600154600160a01b900460ff161561077f5760405162461bcd60e51b81526004016101999061193f565b848314801561078d57508281145b61081c5760405162461bcd60e51b815260206004820152605460248201527f546f6b656e4c6f636b506c616e3a20726563697069656e74732c20756e6c6f6360448201527f6b4166746572536563737320616e64206c6f636b416d6f756e747373206d75736064820152730e840c4ca40e8d0ca40e6c2daca40d8cadccee8d60631b608482015260a401610199565b60005b858110156108ab5761089987878381811061083c5761083c611c1b565b905060200201602081019061085191906119b7565b86868481811061086357610863611c1b565b90506020028101906108759190611c31565b86868681811061088757610887611c1b565b90506020028101906104de9190611c31565b806108a381611c7b565b91505061081f565b50505050505050565b60018054600160a01b900460ff161515146108e15760405162461bcd60e51b815260040161019990611be4565b6108eb3382611218565b50565b60006108f8611091565b610532826110eb565b610909611091565b60026000540361092b5760405162461bcd60e51b815260040161019990611c94565b6002600055600a546001600160a01b03908116908316036109aa5760405162461bcd60e51b815260206004820152603360248201527f546f6b656e4c6f636b506c616e3a20546f6b656e20616464726573732063616e6044820152723737ba103132903637b1b5b2b2103a37b5b2b760691b6064820152608401610199565b6109d06109bf6001546001600160a01b031690565b6001600160a01b0384169083611556565b50506001600055565b6109e1611091565b600260005403610a035760405162461bcd60e51b815260040161019990611c94565b6002600055600154600160a01b900460ff1615610a325760405162461bcd60e51b81526004016101999061193f565b610a5a610a476001546001600160a01b031690565b600a546001600160a01b03169083611556565b506001600055565b610a6a611091565b610a7460006115ad565b565b610a7e611091565b60018054600160a01b900460ff16151514610aab5760405162461bcd60e51b815260040161019990611be4565b60005b610ab860036115ff565b8110156108eb576000610acc600383611609565b90506000610ad9826110eb565b6001600160a01b03831660009081526006602052604081205491925090610b009083611ccb565b90508015610b1257610b128382611218565b5050508080610b2090611c7b565b915050610aae565b610b30611091565b600260005403610b525760405162461bcd60e51b815260040161019990611c94565b6002600055600854811115610b795760405162461bcd60e51b815260040161019990611cde565b600854610b869082611615565b6008556001546040516001600160a01b039091169082156108fc029083906000818181858888f193505050501580156109d0573d6000803e3d6000fd5b610bcb611091565b600154600160a01b900460ff1615610bf55760405162461bcd60e51b81526004016101999061193f565b6001600160a01b038516610c1b5760405162461bcd60e51b815260040161019990611b98565b828114610c9f5760405162461bcd60e51b815260206004820152604660248201527f546f6b656e4c6f636b506c616e3a20756e6c6f636b416674657253656373206160448201527f6e64206c6f636b416d6f756e7473206d757374206265207468652073616d65206064820152650d8cadccee8d60d31b608482015260a401610199565b6001600160a01b0385166000908152600260205260408120610cc091611904565b610ccb600386611621565b5060005b83811015610e53576001600160a01b0386166000908152600260205260409081902081518083019092529080858585818110610d0d57610d0d611c1b565b905060200201358152602001878785818110610d2b57610d2b611c1b565b602090810292909201359092528354600181810186556000958652948290208451600290920201908155920151919092015550610d9b838383818110610d7357610d73611c1b565b6001600160a01b038a1660009081526005602090815260409091205493910201359050610523565b6001600160a01b038716600090815260056020526040902055610de1838383818110610dc957610dc9611c1b565b9050602002013560075461052390919063ffffffff16565b6007557fac87f20a77d28ee8bbb58ec87ea8fa968b3393efae1a368fd50b767c2847391c86848484818110610e1857610e18611c1b565b604080516001600160a01b0390951685526020918202939093013590840152500160405180910390a180610e4b81611c7b565b915050610ccf565b505050505050565b610e63611091565b600260005403610e855760405162461bcd60e51b815260040161019990611c94565b600260005560018054600160a01b900460ff16151514610eb75760405162461bcd60e51b815260040161019990611be4565b600754600a546040516370a0823160e01b81523060048201526001600160a01b03909116906370a0823190602401602060405180830381865afa158015610f02573d6000803e3d6000fd5b505050506040513d601f19601f82011682018060405250810190610f269190611b7f565b11610f435760405162461bcd60e51b815260040161019990611cde565b600754600a546040516370a0823160e01b81523060048201528392610fc09290916001600160a01b03909116906370a0823190602401602060405180830381865afa158015610f96573d6000803e3d6000fd5b505050506040513d601f19601f82011682018060405250810190610fba9190611b7f565b90611615565b11610a325760405162461bcd60e51b815260206004820152602560248201527f546f6b656e4c6f636b506c616e3a20416d6f756e7420657863636565642062616044820152646c616e636560d81b6064820152608401610199565b611023611091565b6001600160a01b0381166110885760405162461bcd60e51b815260206004820152602660248201527f4f776e61626c653a206e6577206f776e657220697320746865207a65726f206160448201526564647265737360d01b6064820152608401610199565b6108eb816115ad565b6001546001600160a01b03163314610a745760405162461bcd60e51b815260206004820181905260248201527f4f776e61626c653a2063616c6c6572206973206e6f7420746865206f776e65726044820152606401610199565b60018054600091600160a01b90910460ff1615151461111c5760405162461bcd60e51b815260040161019990611be4565b6001600160a01b0382166111425760405162461bcd60e51b815260040161019990611b98565b6000805b6001600160a01b038416600090815260026020526040902054811015611211576001600160a01b038416600090815260026020526040902080548290811061119057611190611c1b565b9060005260206000209060020201600101546009546111af9190611b6c565b42106111ff576001600160a01b038416600090815260026020526040902080546111fc9190839081106111e4576111e4611c1b565b60009182526020909120600290910201548390610523565b91505b8061120981611c7b565b915050611146565b5092915050565b60026000540361123a5760405162461bcd60e51b815260040161019990611c94565b600260005560018054600160a01b900460ff1615151461126c5760405162461bcd60e51b815260040161019990611be4565b6001600160a01b0382166112925760405162461bcd60e51b815260040161019990611b98565b600a546040516370a0823160e01b815230600482015282916001600160a01b0316906370a0823190602401602060405180830381865afa1580156112da573d6000803e3d6000fd5b505050506040513d601f19601f820116820180604052508101906112fe9190611b7f565b10156113615760405162461bcd60e51b815260206004820152602c60248201527f546f6b656e4c6f636b506c616e3a20496e73756666696369656e7420636f6e7460448201526b726163742062616c616e636560a01b6064820152608401610199565b6001600160a01b0382166000908152600560205260409020548111156113df5760405162461bcd60e51b815260206004820152602d60248201527f546f6b656e4c6f636b506c616e3a20496e73756666696369656e74207265636960448201526c7069656e742062616c616e636560981b6064820152608401610199565b60006113ea836110eb565b6001600160a01b0384166000908152600660205260409020549091508290611413908390611615565b10156114785760405162461bcd60e51b815260206004820152602e60248201527f546f6b656e4c6f636b506c616e3a20416d6f756e74206578636365656420756e60448201526d6c6f636b65642062616c616e636560901b6064820152608401610199565b6001600160a01b03831660009081526006602052604090205461149b9083610523565b6001600160a01b0384166000908152600660209081526040808320939093556005905220546114ca9083611615565b6001600160a01b0384166000908152600560205260409020556007546114f09083611615565b600755600a5461150a906001600160a01b03168484611556565b604080516001600160a01b0385168152602081018490527f68761d62bcdb81c04d8529c871fffa698303c79d20997890d04b2b56022bef76910160405180910390a15050600160005550565b604080516001600160a01b038416602482015260448082018490528251808303909101815260649091019091526020810180516001600160e01b031663a9059cbb60e01b1790526115a8908490611636565b505050565b600180546001600160a01b038381166001600160a01b0319831681179093556040519116919082907f8be0079c531659141344cd1fd0a4f28419497f9722a3daafe3b4186f6b6457e090600090a35050565b6000610532825490565b600061052f8383611708565b600061052f8284611ccb565b600061052f836001600160a01b038416611732565b600061168b826040518060400160405280602081526020017f5361666545524332303a206c6f772d6c6576656c2063616c6c206661696c6564815250856001600160a01b03166117819092919063ffffffff16565b8051909150156115a857808060200190518101906116a99190611d21565b6115a85760405162461bcd60e51b815260206004820152602a60248201527f5361666545524332303a204552433230206f7065726174696f6e20646964206e6044820152691bdd081cdd58d8d9595960b21b6064820152608401610199565b600082600001828154811061171f5761171f611c1b565b9060005260206000200154905092915050565b600081815260018301602052604081205461177957508154600181810184556000848152602080822090930184905584548482528286019093526040902091909155610532565b506000610532565b6060611790848460008561179a565b90505b9392505050565b6060824710156117fb5760405162461bcd60e51b815260206004820152602660248201527f416464726573733a20696e73756666696369656e742062616c616e636520666f6044820152651c8818d85b1b60d21b6064820152608401610199565b6001600160a01b0385163b6118525760405162461bcd60e51b815260206004820152601d60248201527f416464726573733a2063616c6c20746f206e6f6e2d636f6e74726163740000006044820152606401610199565b600080866001600160a01b0316858760405161186e9190611d67565b60006040518083038185875af1925050503d80600081146118ab576040519150601f19603f3d011682016040523d82523d6000602084013e6118b0565b606091505b50915091506118c08282866118cb565b979650505050505050565b606083156118da575081611793565b8251156118ea5782518084602001fd5b8160405162461bcd60e51b81526004016101999190611d83565b50805460008255600202906000526020600020908101906108eb91905b8082111561193b5760008082556001820155600201611921565b5090565b6020808252601d908201527f546f6b656e4c6f636b506c616e3a20506c616e206973206c6f636b6564000000604082015260600190565b6001600160a01b03811681146108eb57600080fd5b6000806040838503121561199e57600080fd5b82356119a981611976565b946020939093013593505050565b6000602082840312156119c957600080fd5b813561179381611976565b60008083601f8401126119e657600080fd5b50813567ffffffffffffffff8111156119fe57600080fd5b6020830191508360208260051b8501011115611a1957600080fd5b9250929050565b60008060008060008060608789031215611a3957600080fd5b863567ffffffffffffffff80821115611a5157600080fd5b611a5d8a838b016119d4565b90985096506020890135915080821115611a7657600080fd5b611a828a838b016119d4565b90965094506040890135915080821115611a9b57600080fd5b50611aa889828a016119d4565b979a9699509497509295939492505050565b600060208284031215611acc57600080fd5b5035919050565b600080600080600060608688031215611aeb57600080fd5b8535611af681611976565b9450602086013567ffffffffffffffff80821115611b1357600080fd5b611b1f89838a016119d4565b90965094506040880135915080821115611b3857600080fd5b50611b45888289016119d4565b969995985093965092949392505050565b634e487b7160e01b600052601160045260246000fd5b8082018082111561053257610532611b56565b600060208284031215611b9157600080fd5b5051919050565b6020808252602c908201527f546f6b656e4c6f636b506c616e3a20726563697069656e74206973207468652060408201526b7a65726f206164647265737360a01b606082015260800190565b6020808252601f908201527f546f6b656e4c6f636b506c616e3a20506c616e20697320756e6c6f636b656400604082015260600190565b634e487b7160e01b600052603260045260246000fd5b6000808335601e19843603018112611c4857600080fd5b83018035915067ffffffffffffffff821115611c6357600080fd5b6020019150600581901b3603821315611a1957600080fd5b600060018201611c8d57611c8d611b56565b5060010190565b6020808252601f908201527f5265656e7472616e637947756172643a207265656e7472616e742063616c6c00604082015260600190565b8181038181111561053257610532611b56565b60208082526023908201527f546f6b656e4c6f636b506c616e3a20496e73756666696369656e742062616c616040820152626e636560e81b606082015260800190565b600060208284031215611d3357600080fd5b8151801515811461179357600080fd5b60005b83811015611d5e578181015183820152602001611d46565b50506000910152565b60008251611d79818460208701611d43565b9190910192915050565b6020815260008251806020840152611da2816040850160208701611d43565b601f01601f1916919091016040019291505056fea2646970667358221220e88e3c23967736e4dea9fb1ac4e4e96988f22014a99218e221c547d4a16aea5d64736f6c63430008100033",
  "immutableReferences": {},
  "source": "// SPDX-License-Identifier: MIT\npragma solidity 0.8.16;\n\nimport \"@openzeppelin/contracts/token/ERC20/utils/SafeERC20.sol\";\nimport \"@openzeppelin/contracts/security/ReentrancyGuard.sol\";\nimport \"@openzeppelin/contracts/access/Ownable.sol\";\nimport \"@openzeppelin/contracts/utils/math/SafeMath.sol\";\nimport \"@openzeppelin/contracts/utils/structs/EnumerableSet.sol\";\n\ncontract TokenLockPlan is ReentrancyGuard, Ownable {\n\n    struct LockPlan {\n        uint256 amount;\n        uint256 unlockAfterSecs;\n    }\n\n    // Flags\n    bool public isLocked;\n\n    // Library usage\n    using SafeERC20 for IERC20;\n    using SafeMath for uint256;\n    using EnumerableSet for EnumerableSet.AddressSet;\n\n    // Lock Plan\n    mapping(address => LockPlan[]) public lockPlans;\n    EnumerableSet.AddressSet private lockPlanRecipients;\n\n    // Token Balance\n    mapping(address => uint256) public balances;\n    mapping(address => uint256) public alreadyWithdrawn;\n    uint256 public totalBalance;\n    uint256 public contractEthBalance;\n\n    // Lock Timestamp\n    uint256 public lockStartTimestamp;\n\n    // Lock ERC20 Contract\n    IERC20 public erc20Contract;\n\n    // Events\n    event EthDeposited(address from, uint256 amount);\n    event TokensLocked(address recipient, uint256 amount);\n    event TokensWithdrawed(address recipient, uint256 amount);\n\n    /// @dev Deploys contract and links the ERC20 token which we are locking.\n    /// @param _erc20_contract_address, the ERC20 token address that we are locking\n    constructor(IERC20 _erc20_contract_address) {\n        isLocked = false;\n        erc20Contract = _erc20_contract_address;\n    }\n\n    /// @dev the plan should be locked\n    modifier locked() {\n        require(isLocked == true, \"TokenLockPlan: Plan is unlocked\");\n        _;\n    }\n\n    /// @dev the plan should be unlocked\n    modifier notLocked() {\n        require(isLocked == false, \"TokenLockPlan: Plan is locked\");\n        _;\n    }\n\n    receive() payable external notLocked {\n        /// Tracking accidently deposited ETH for later\n        contractEthBalance = contractEthBalance.add(msg.value);\n        emit EthDeposited(msg.sender, msg.value);\n    }\n\n    /// @dev Lockup the Plan\n    /// This will lockup the plan, and the owner will not able to transfer the target token anymore.\n    /// The owner can only transfer the target token that excceed total balance of lock plan.\n    function lockup() public onlyOwner notLocked {\n        // Check contract balance is equal to all locked token amount.\n        require(erc20Contract.balanceOf(address(this)) >= totalBalance, \"TokenLockPlan: Depoisted contract balance is less than total locking amount\");\n\n        // Record Lock Start Time\n        lockStartTimestamp = block.timestamp;\n\n        // Make owner cannot access anymore\n        isLocked = true;\n    }\n\n    /// @dev Set the Lock Plan for recipient.\n    /// The original lock plan of recipient will be replaced by this new plan.\n    /// @param recipient, the address of recipient\n    /// @param unlockAfterSecs, the seconds to unlock after the lock (in secs)\n    /// @param lockAmounts, amount of locking token\n    function setLockPlan(address recipient, uint256[] calldata unlockAfterSecs, uint256[] calldata lockAmounts) public onlyOwner notLocked {\n        require(recipient != address(0), \"TokenLockPlan: recipient is the zero address\");\n        require(unlockAfterSecs.length == lockAmounts.length, \"TokenLockPlan: unlockAfterSecs and lockAmounts must be the same length\");\n        \n        // Delete the original lock plan\n        delete lockPlans[recipient];\n\n        // Add recipient to lock plan recipients\n        lockPlanRecipients.add(recipient);\n\n        for(uint256 i = 0; i < unlockAfterSecs.length; i++)\n        {\n            // Add lock plan\n            lockPlans[recipient].push(\n                LockPlan(\n                    lockAmounts[i],\n                    unlockAfterSecs[i]\n                )\n            );\n\n            // Track lock balance\n            balances[recipient] = balances[recipient].add(lockAmounts[i]);\n            totalBalance = totalBalance.add(lockAmounts[i]);\n\n            emit TokensLocked(recipient, lockAmounts[i]);\n        }\n    }\n\n    /// @dev Set the Lock Plans for many recipient.\n    /// The original lock plan of recipient will be replaced by this new plan.\n    /// @param recipients, the address of recipient\n    /// @param unlockAfterSecss, the seconds to unlock after the lock (in secs)\n    /// @param lockAmountss, amount of locking token\n    function bulkSetLockPlan(address[] calldata recipients, uint256[][] calldata unlockAfterSecss, uint256[][] calldata lockAmountss) external onlyOwner notLocked {\n        require(recipients.length == unlockAfterSecss.length && unlockAfterSecss.length == lockAmountss.length, \"TokenLockPlan: recipients, unlockAfterSecss and lockAmountss must be the same length\");\n        \n        for(uint256 i = 0; i < recipients.length; i++)\n        {\n            setLockPlan(recipients[i], unlockAfterSecss[i], lockAmountss[i]);\n        }\n    }\n\n    /// @dev Get lockPlan length of recipient\n    function lockPlanLength(address recipient) public view returns (uint256) {\n        require(recipient != address(0), \"TokenLockPlan: recipient is the zero address\");\n\n        return lockPlans[recipient].length;\n    }\n\n    /// @dev Check how many tokens has been unlocked for me.\n    function myUnlockedTokenBalance() public view returns (uint256) {\n        return unlockedTokenBalance(msg.sender);\n    }\n\n    /// @dev Check how many tokens has been unlocked for recipient.\n    /// @param recipient, the address of recipient\n    function userUnlockedTokenBalance(address recipient) public onlyOwner view returns (uint256) {\n        return unlockedTokenBalance(recipient);\n    }\n\n    /// @dev Check how many tokens has been unlocked for recipient.\n    /// @param recipient, the address of recipient\n    function unlockedTokenBalance(address recipient) private locked view returns (uint256) {\n        require(recipient != address(0), \"TokenLockPlan: recipient is the zero address\");\n\n        // Calculate unlocked token balance\n        uint256 unlockedBalance = 0;\n        for(uint256 i = 0; i < lockPlans[recipient].length; i++)\n        {\n            if(block.timestamp >= lockStartTimestamp + lockPlans[recipient][i].unlockAfterSecs)\n            {\n                unlockedBalance = unlockedBalance.add(lockPlans[recipient][i].amount);\n            }\n        }\n\n        return unlockedBalance;\n    }\n\n    /// @dev Withdraw my unlocked token\n    /// @param withdrawAmount, the amount of withdrawing token (in wei)\n    function withdrawMyUnlockedToken(uint256 withdrawAmount) public locked {\n        withdrawUnlockedToken(msg.sender, withdrawAmount);\n    }\n\n    /// @dev Withdraw user unlocked token\n    /// @param recipient, the address of recipient\n    /// @param withdrawAmount, the amount of withdrawing token (in wei)\n    function withdrawUserUnlockedToken(address recipient, uint256 withdrawAmount) public onlyOwner locked {\n        withdrawUnlockedToken(recipient, withdrawAmount);\n    }\n\n    /// @dev Withdraw all user unlocked token\n    function withdrawAllUserUnlockedToken() public onlyOwner locked {\n        for(uint256 i = 0; i < lockPlanRecipients.length(); i++)\n        {\n            //Check unlockedTokenAmount\n            address recipient = lockPlanRecipients.at(i);\n            uint256 unlockedBalance = unlockedTokenBalance(recipient);\n            uint256 witrhdrawAmount = unlockedBalance - alreadyWithdrawn[recipient];\n\n            if(witrhdrawAmount > 0)\n            {\n                withdrawUnlockedToken(recipient, witrhdrawAmount);\n            }\n        }\n    }\n\n    /// @dev Withdraw unlocked token of sender\n    /// @param recipient, the address of recipient\n    /// @param withdrawAmount, the amount of withdrawing token (in wei)\n    function withdrawUnlockedToken(address recipient, uint256 withdrawAmount) private nonReentrant locked {\n        // Validate\n        require(recipient != address(0), \"TokenLockPlan: recipient is the zero address\");\n        require(erc20Contract.balanceOf(address(this)) >= withdrawAmount, \"TokenLockPlan: Insufficient contract balance\");\n        require(balances[recipient] >= withdrawAmount, \"TokenLockPlan: Insufficient recipient balance\");\n\n        // Calculate unlocked token balance\n        uint256 unlockedBalance = unlockedTokenBalance(recipient);\n        \n        // Calaculate withdrawable token balance\n        require(unlockedBalance.sub(alreadyWithdrawn[recipient]) >= withdrawAmount, \"TokenLockPlan: Amount excceed unlocked balance\");\n\n        // Transfer\n        alreadyWithdrawn[recipient] = alreadyWithdrawn[recipient].add(withdrawAmount);\n        balances[recipient] = balances[recipient].sub(withdrawAmount);\n        totalBalance = totalBalance.sub(withdrawAmount);\n        erc20Contract.safeTransfer(recipient, withdrawAmount);\n        emit TokensWithdrawed(recipient, withdrawAmount);\n    }\n\n    /// @dev Get balance of deposited ETH into this contract.\n    function depositedEthBalance() public view returns (uint256) {\n        return contractEthBalance;\n    }\n\n    /// @dev Transfer deposited tokens before lockup to onwer.\n    /// @param amount, amount of ERC20 tokens to remove.\n    function transferDepositedTokensToOnwer(uint256 amount) public onlyOwner nonReentrant notLocked {\n        erc20Contract.safeTransfer(payable(owner()), amount);\n    }\n\n    /// @dev Transfer accidentally deposited tokens before lockup to onwer.\n    /// @param amount, amount of ERC20 tokens to remove.\n    function transferAccidentallyDepositedTokensToOnwer(uint256 amount) public onlyOwner nonReentrant locked {\n        require(erc20Contract.balanceOf(address(this)) > totalBalance, \"TokenLockPlan: Insufficient balance\");\n        require(erc20Contract.balanceOf(address(this)).sub(totalBalance) > amount, \"TokenLockPlan: Amount excceed balance\");\n\n        erc20Contract.safeTransfer(payable(owner()), amount);\n    }\n\n    /// @dev Transfer accidentally deposited other ERC20 tokens to onwer.\n    /// @param token, other ERC20 token contract address.\n    /// @param amount, amount of ERC20 tokens to remove.\n    function transferAccidentallyDepositedOtherTokensToOnwer(IERC20 token, uint256 amount) public onlyOwner nonReentrant {\n        // Validate\n        require(token != erc20Contract, \"TokenLockPlan: Token address cannot be locked token\");\n        \n        token.safeTransfer(payable(owner()), amount);\n    }\n\n    /// @dev Transfer accidently deposited ETH to onwer.\n    /// @param amount, of network tokens to withdraw (in wei).\n    function transferAccidentallyDepositedEthToOnwer(uint256 amount) public onlyOwner nonReentrant{\n        require(amount <= contractEthBalance, \"TokenLockPlan: Insufficient balance\");\n        contractEthBalance = contractEthBalance.sub(amount);\n\n        // Transfer the specified amount of Eth to the owner of this contract\n        payable(owner()).transfer(amount);\n    }\n}",
  "sourcePath": "/Users/kyungyoonkim/blockchain/MultiTimeLock/contracts/TokenLockPlan.sol",
  "compiler": {
    "name": "solc",
    "version": "0.8.16+commit.07a7930e.Emscripten.clang"
  },
  "schemaVersion": "3.4.8",
  "updatedAt": "2022-09-05T06:09:53.438Z",
  "devdoc": {
    "kind": "dev",
    "methods": {
      "bulkSetLockPlan(address[],uint256[][],uint256[][])": {
        "details": "Set the Lock Plans for many recipient. The original lock plan of recipient will be replaced by this new plan.",
        "params": {
          "lockAmountss": ", amount of locking token",
          "recipients": ", the address of recipient",
          "unlockAfterSecss": ", the seconds to unlock after the lock (in secs)"
        }
      },
      "constructor": {
        "details": "Deploys contract and links the ERC20 token which we are locking.",
        "params": {
          "_erc20_contract_address": ", the ERC20 token address that we are locking"
        }
      },
      "depositedEthBalance()": {
        "details": "Get balance of deposited ETH into this contract."
      },
      "lockPlanLength(address)": {
        "details": "Get lockPlan length of recipient"
      },
      "lockup()": {
        "details": "Lockup the Plan This will lockup the plan, and the owner will not able to transfer the target token anymore. The owner can only transfer the target token that excceed total balance of lock plan."
      },
      "myUnlockedTokenBalance()": {
        "details": "Check how many tokens has been unlocked for me."
      },
      "owner()": {
        "details": "Returns the address of the current owner."
      },
      "renounceOwnership()": {
        "details": "Leaves the contract without owner. It will not be possible to call `onlyOwner` functions anymore. Can only be called by the current owner. NOTE: Renouncing ownership will leave the contract without an owner, thereby removing any functionality that is only available to the owner."
      },
      "setLockPlan(address,uint256[],uint256[])": {
        "details": "Set the Lock Plan for recipient. The original lock plan of recipient will be replaced by this new plan.",
        "params": {
          "lockAmounts": ", amount of locking token",
          "recipient": ", the address of recipient",
          "unlockAfterSecs": ", the seconds to unlock after the lock (in secs)"
        }
      },
      "transferAccidentallyDepositedEthToOnwer(uint256)": {
        "details": "Transfer accidently deposited ETH to onwer.",
        "params": {
          "amount": ", of network tokens to withdraw (in wei)."
        }
      },
      "transferAccidentallyDepositedOtherTokensToOnwer(address,uint256)": {
        "details": "Transfer accidentally deposited other ERC20 tokens to onwer.",
        "params": {
          "amount": ", amount of ERC20 tokens to remove.",
          "token": ", other ERC20 token contract address."
        }
      },
      "transferAccidentallyDepositedTokensToOnwer(uint256)": {
        "details": "Transfer accidentally deposited tokens before lockup to onwer.",
        "params": {
          "amount": ", amount of ERC20 tokens to remove."
        }
      },
      "transferDepositedTokensToOnwer(uint256)": {
        "details": "Transfer deposited tokens before lockup to onwer.",
        "params": {
          "amount": ", amount of ERC20 tokens to remove."
        }
      },
      "transferOwnership(address)": {
        "details": "Transfers ownership of the contract to a new account (`newOwner`). Can only be called by the current owner."
      },
      "userUnlockedTokenBalance(address)": {
        "details": "Check how many tokens has been unlocked for recipient.",
        "params": {
          "recipient": ", the address of recipient"
        }
      },
      "withdrawAllUserUnlockedToken()": {
        "details": "Withdraw all user unlocked token"
      },
      "withdrawMyUnlockedToken(uint256)": {
        "details": "Withdraw my unlocked token",
        "params": {
          "withdrawAmount": ", the amount of withdrawing token (in wei)"
        }
      },
      "withdrawUserUnlockedToken(address,uint256)": {
        "details": "Withdraw user unlocked token",
        "params": {
          "recipient": ", the address of recipient",
          "withdrawAmount": ", the amount of withdrawing token (in wei)"
        }
      }
    },
    "version": 1
  },
  "userdoc": {
    "kind": "user",
    "methods": {},
    "version": 1
  }
}